{
	"contracts/firstcontract.sol": {
		"firstContract": {
			"abi": [
				{
					"inputs": [
						{
							"internalType": "string",
							"name": "_name",
							"type": "string"
						},
						{
							"internalType": "uint256",
							"name": "_year",
							"type": "uint256"
						},
						{
							"internalType": "enum firstContract.CarBrand",
							"name": "_CarBrand",
							"type": "uint8"
						},
						{
							"internalType": "string",
							"name": "_color",
							"type": "string"
						},
						{
							"internalType": "enum firstContract.CarModel",
							"name": "_CarModel",
							"type": "uint8"
						}
					],
					"name": "CreateCar",
					"outputs": [
						{
							"components": [
								{
									"internalType": "string",
									"name": "name",
									"type": "string"
								},
								{
									"internalType": "uint256",
									"name": "year",
									"type": "uint256"
								},
								{
									"internalType": "enum firstContract.CarBrand",
									"name": "CarBrand",
									"type": "uint8"
								},
								{
									"internalType": "string",
									"name": "color",
									"type": "string"
								},
								{
									"internalType": "enum firstContract.CarModel",
									"name": "CarModel",
									"type": "uint8"
								}
							],
							"internalType": "struct firstContract.Car",
							"name": "",
							"type": "tuple"
						}
					],
					"stateMutability": "pure",
					"type": "function"
				},
				{
					"inputs": [
						{
							"internalType": "uint256",
							"name": "_number",
							"type": "uint256"
						}
					],
					"name": "addNum",
					"outputs": [],
					"stateMutability": "nonpayable",
					"type": "function"
				},
				{
					"inputs": [
						{
							"internalType": "uint256",
							"name": "index",
							"type": "uint256"
						}
					],
					"name": "getnumberIndex",
					"outputs": [
						{
							"internalType": "uint256",
							"name": "",
							"type": "uint256"
						}
					],
					"stateMutability": "view",
					"type": "function"
				},
				{
					"inputs": [],
					"name": "getnumberLen",
					"outputs": [
						{
							"internalType": "uint256",
							"name": "",
							"type": "uint256"
						}
					],
					"stateMutability": "view",
					"type": "function"
				},
				{
					"inputs": [
						{
							"internalType": "uint256",
							"name": "_index",
							"type": "uint256"
						}
					],
					"name": "leftShiftDel",
					"outputs": [
						{
							"internalType": "bool",
							"name": "",
							"type": "bool"
						}
					],
					"stateMutability": "nonpayable",
					"type": "function"
				},
				{
					"inputs": [],
					"name": "name",
					"outputs": [
						{
							"internalType": "uint256",
							"name": "",
							"type": "uint256"
						}
					],
					"stateMutability": "view",
					"type": "function"
				},
				{
					"inputs": [],
					"name": "popNum",
					"outputs": [
						{
							"internalType": "bool",
							"name": "",
							"type": "bool"
						}
					],
					"stateMutability": "nonpayable",
					"type": "function"
				},
				{
					"inputs": [
						{
							"internalType": "uint256",
							"name": "_index",
							"type": "uint256"
						}
					],
					"name": "randomShiftDel",
					"outputs": [
						{
							"internalType": "bool",
							"name": "",
							"type": "bool"
						}
					],
					"stateMutability": "nonpayable",
					"type": "function"
				},
				{
					"inputs": [],
					"name": "value",
					"outputs": [
						{
							"internalType": "uint256",
							"name": "",
							"type": "uint256"
						}
					],
					"stateMutability": "view",
					"type": "function"
				}
			],
			"devdoc": {
				"kind": "dev",
				"methods": {},
				"version": 1
			},
			"evm": {
				"assembly": "    /* \"contracts/firstcontract.sol\":94:1868  contract firstContract{... */\n  mstore(0x40, 0x80)\n    /* \"contracts/firstcontract.sol\":340:368  uint[] numbers = [1,2,3,4,5] */\n  mload(0x40)\n  dup1\n  0xa0\n  add\n  0x40\n  mstore\n  dup1\n    /* \"contracts/firstcontract.sol\":358:359  1 */\n  0x01\n    /* \"contracts/firstcontract.sol\":340:368  uint[] numbers = [1,2,3,4,5] */\n  0xff\n  and\n  dup2\n  mstore\n  0x20\n  add\n    /* \"contracts/firstcontract.sol\":360:361  2 */\n  0x02\n    /* \"contracts/firstcontract.sol\":340:368  uint[] numbers = [1,2,3,4,5] */\n  0xff\n  and\n  dup2\n  mstore\n  0x20\n  add\n    /* \"contracts/firstcontract.sol\":362:363  3 */\n  0x03\n    /* \"contracts/firstcontract.sol\":340:368  uint[] numbers = [1,2,3,4,5] */\n  0xff\n  and\n  dup2\n  mstore\n  0x20\n  add\n    /* \"contracts/firstcontract.sol\":364:365  4 */\n  0x04\n    /* \"contracts/firstcontract.sol\":340:368  uint[] numbers = [1,2,3,4,5] */\n  0xff\n  and\n  dup2\n  mstore\n  0x20\n  add\n    /* \"contracts/firstcontract.sol\":366:367  5 */\n  0x05\n    /* \"contracts/firstcontract.sol\":340:368  uint[] numbers = [1,2,3,4,5] */\n  0xff\n  and\n  dup2\n  mstore\n  pop\n  0x04\n  swap1\n  0x05\n  tag_1\n  swap3\n  swap2\n  swap1\n  tag_2\n  jump\t// in\ntag_1:\n  pop\n    /* \"contracts/firstcontract.sol\":94:1868  contract firstContract{... */\n  callvalue\n  dup1\n  iszero\n  tag_3\n  jumpi\n  0x00\n  dup1\n  revert\ntag_3:\n  pop\n  jump(tag_4)\ntag_2:\n  dup3\n  dup1\n  sload\n  dup3\n  dup3\n  sstore\n  swap1\n  0x00\n  mstore\n  keccak256(0x00, 0x20)\n  swap1\n  dup2\n  add\n  swap3\n  dup3\n  iszero\n  tag_5\n  jumpi\n  swap2\n  0x20\n  mul\n  dup3\n  add\ntag_6:\n  dup3\n  dup2\n  gt\n  iszero\n  tag_7\n  jumpi\n  dup3\n  mload\n  dup3\n  swap1\n  0xff\n  and\n  swap1\n  sstore\n  swap2\n  0x20\n  add\n  swap2\n  swap1\n  0x01\n  add\n  swap1\n  jump(tag_6)\ntag_7:\ntag_5:\n  pop\n  swap1\n  pop\n  tag_8\n  swap2\n  swap1\n  tag_9\n  jump\t// in\ntag_8:\n  pop\n  swap1\n  jump\t// out\ntag_9:\ntag_10:\n  dup1\n  dup3\n  gt\n  iszero\n  tag_11\n  jumpi\n  0x00\n  dup2\n  0x00\n  swap1\n  sstore\n  pop\n  0x01\n  add\n  jump(tag_10)\ntag_11:\n  pop\n  swap1\n  jump\t// out\ntag_4:\n  dataSize(sub_0)\n  dup1\n  dataOffset(sub_0)\n  0x00\n  codecopy\n  0x00\n  return\nstop\n\nsub_0: assembly {\n        /* \"contracts/firstcontract.sol\":94:1868  contract firstContract{... */\n      mstore(0x40, 0x80)\n      callvalue\n      dup1\n      iszero\n      tag_1\n      jumpi\n      0x00\n      dup1\n      revert\n    tag_1:\n      pop\n      jumpi(tag_2, lt(calldatasize, 0x04))\n      shr(0xe0, calldataload(0x00))\n      dup1\n      0x5a463a32\n      gt\n      tag_12\n      jumpi\n      dup1\n      0x5a463a32\n      eq\n      tag_7\n      jumpi\n      dup1\n      0x5fcec3ff\n      eq\n      tag_8\n      jumpi\n      dup1\n      0x75278362\n      eq\n      tag_9\n      jumpi\n      dup1\n      0x9195460e\n      eq\n      tag_10\n      jumpi\n      dup1\n      0xe65d1594\n      eq\n      tag_11\n      jumpi\n      jump(tag_2)\n    tag_12:\n      dup1\n      0x06fdde03\n      eq\n      tag_3\n      jumpi\n      dup1\n      0x1030fe4b\n      eq\n      tag_4\n      jumpi\n      dup1\n      0x3fa4f245\n      eq\n      tag_5\n      jumpi\n      dup1\n      0x53c00012\n      eq\n      tag_6\n      jumpi\n    tag_2:\n      0x00\n      dup1\n      revert\n        /* \"contracts/firstcontract.sol\":123:139  uint public name */\n    tag_3:\n      tag_13\n      tag_14\n      jump\t// in\n    tag_13:\n      mload(0x40)\n      tag_15\n      swap2\n      swap1\n      tag_16\n      jump\t// in\n    tag_15:\n      mload(0x40)\n      dup1\n      swap2\n      sub\n      swap1\n      return\n        /* \"contracts/firstcontract.sol\":1614:1865  function leftShiftDel(uint _index) public  returns (bool) {... */\n    tag_4:\n      tag_17\n      0x04\n      dup1\n      calldatasize\n      sub\n      dup2\n      add\n      swap1\n      tag_18\n      swap2\n      swap1\n      tag_19\n      jump\t// in\n    tag_18:\n      tag_20\n      jump\t// in\n    tag_17:\n      mload(0x40)\n      tag_21\n      swap2\n      swap1\n      tag_22\n      jump\t// in\n    tag_21:\n      mload(0x40)\n      dup1\n      swap2\n      sub\n      swap1\n      return\n        /* \"contracts/firstcontract.sol\":146:163  uint public value */\n    tag_5:\n      tag_23\n      tag_24\n      jump\t// in\n    tag_23:\n      mload(0x40)\n      tag_25\n      swap2\n      swap1\n      tag_16\n      jump\t// in\n    tag_25:\n      mload(0x40)\n      dup1\n      swap2\n      sub\n      swap1\n      return\n        /* \"contracts/firstcontract.sol\":950:1036  function getnumberLen() public view returns(uint) {... */\n    tag_6:\n      tag_26\n      tag_27\n      jump\t// in\n    tag_26:\n      mload(0x40)\n      tag_28\n      swap2\n      swap1\n      tag_16\n      jump\t// in\n    tag_28:\n      mload(0x40)\n      dup1\n      swap2\n      sub\n      swap1\n      return\n        /* \"contracts/firstcontract.sol\":1437:1608  function randomShiftDel(uint _index) public  returns (bool) {... */\n    tag_7:\n      tag_29\n      0x04\n      dup1\n      calldatasize\n      sub\n      dup2\n      add\n      swap1\n      tag_30\n      swap2\n      swap1\n      tag_19\n      jump\t// in\n    tag_30:\n      tag_31\n      jump\t// in\n    tag_29:\n      mload(0x40)\n      tag_32\n      swap2\n      swap1\n      tag_22\n      jump\t// in\n    tag_32:\n      mload(0x40)\n      dup1\n      swap2\n      sub\n      swap1\n      return\n        /* \"contracts/firstcontract.sol\":1044:1150  function getnumberIndex(uint index) public view returns (uint){... */\n    tag_8:\n      tag_33\n      0x04\n      dup1\n      calldatasize\n      sub\n      dup2\n      add\n      swap1\n      tag_34\n      swap2\n      swap1\n      tag_19\n      jump\t// in\n    tag_34:\n      tag_35\n      jump\t// in\n    tag_33:\n      mload(0x40)\n      tag_36\n      swap2\n      swap1\n      tag_16\n      jump\t// in\n    tag_36:\n      mload(0x40)\n      dup1\n      swap2\n      sub\n      swap1\n      return\n        /* \"contracts/firstcontract.sol\":1158:1235  function addNum(uint _number) public {... */\n    tag_9:\n      tag_37\n      0x04\n      dup1\n      calldatasize\n      sub\n      dup2\n      add\n      swap1\n      tag_38\n      swap2\n      swap1\n      tag_19\n      jump\t// in\n    tag_38:\n      tag_39\n      jump\t// in\n    tag_37:\n      stop\n        /* \"contracts/firstcontract.sol\":581:944  function CreateCar(... */\n    tag_10:\n      tag_40\n      0x04\n      dup1\n      calldatasize\n      sub\n      dup2\n      add\n      swap1\n      tag_41\n      swap2\n      swap1\n      tag_42\n      jump\t// in\n    tag_41:\n      tag_43\n      jump\t// in\n    tag_40:\n      mload(0x40)\n      tag_44\n      swap2\n      swap1\n      tag_45\n      jump\t// in\n    tag_44:\n      mload(0x40)\n      dup1\n      swap2\n      sub\n      swap1\n      return\n        /* \"contracts/firstcontract.sol\":1241:1431  function popNum() public returns (bool){... */\n    tag_11:\n      tag_46\n      tag_47\n      jump\t// in\n    tag_46:\n      mload(0x40)\n      tag_48\n      swap2\n      swap1\n      tag_22\n      jump\t// in\n    tag_48:\n      mload(0x40)\n      dup1\n      swap2\n      sub\n      swap1\n      return\n        /* \"contracts/firstcontract.sol\":123:139  uint public name */\n    tag_14:\n      sload(0x00)\n      dup2\n      jump\t// out\n        /* \"contracts/firstcontract.sol\":1614:1865  function leftShiftDel(uint _index) public  returns (bool) {... */\n    tag_20:\n        /* \"contracts/firstcontract.sol\":1666:1670  bool */\n      0x00\n        /* \"contracts/firstcontract.sol\":1689:1696  numbers */\n      0x04\n        /* \"contracts/firstcontract.sol\":1697:1703  _index */\n      dup3\n        /* \"contracts/firstcontract.sol\":1689:1704  numbers[_index] */\n      dup2\n      sload\n      dup2\n      lt\n      tag_50\n      jumpi\n      tag_51\n      tag_52\n      jump\t// in\n    tag_51:\n    tag_50:\n      swap1\n      0x00\n      mstore\n      keccak256(0x00, 0x20)\n      add\n        /* \"contracts/firstcontract.sol\":1682:1704  delete numbers[_index] */\n      0x00\n      swap1\n      sstore\n        /* \"contracts/firstcontract.sol\":1719:1725  uint i */\n      0x00\n        /* \"contracts/firstcontract.sol\":1728:1734  _index */\n      dup3\n        /* \"contracts/firstcontract.sol\":1719:1734  uint i = _index */\n      swap1\n      pop\n        /* \"contracts/firstcontract.sol\":1714:1811  for (uint i = _index; i< numbers.length - 1; i++) {... */\n    tag_54:\n        /* \"contracts/firstcontract.sol\":1756:1757  1 */\n      0x01\n        /* \"contracts/firstcontract.sol\":1739:1746  numbers */\n      0x04\n        /* \"contracts/firstcontract.sol\":1739:1753  numbers.length */\n      dup1\n      sload\n      swap1\n      pop\n        /* \"contracts/firstcontract.sol\":1739:1757  numbers.length - 1 */\n      tag_57\n      swap2\n      swap1\n      tag_58\n      jump\t// in\n    tag_57:\n        /* \"contracts/firstcontract.sol\":1736:1737  i */\n      dup2\n        /* \"contracts/firstcontract.sol\":1736:1757  i< numbers.length - 1 */\n      lt\n        /* \"contracts/firstcontract.sol\":1714:1811  for (uint i = _index; i< numbers.length - 1; i++) {... */\n      iszero\n      tag_55\n      jumpi\n        /* \"contracts/firstcontract.sol\":1788:1795  numbers */\n      0x04\n        /* \"contracts/firstcontract.sol\":1798:1799  1 */\n      0x01\n        /* \"contracts/firstcontract.sol\":1796:1797  i */\n      dup3\n        /* \"contracts/firstcontract.sol\":1796:1799  i+1 */\n      tag_59\n      swap2\n      swap1\n      tag_60\n      jump\t// in\n    tag_59:\n        /* \"contracts/firstcontract.sol\":1788:1800  numbers[i+1] */\n      dup2\n      sload\n      dup2\n      lt\n      tag_61\n      jumpi\n      tag_62\n      tag_52\n      jump\t// in\n    tag_62:\n    tag_61:\n      swap1\n      0x00\n      mstore\n      keccak256(0x00, 0x20)\n      add\n      sload\n        /* \"contracts/firstcontract.sol\":1775:1782  numbers */\n      0x04\n        /* \"contracts/firstcontract.sol\":1783:1784  i */\n      dup3\n        /* \"contracts/firstcontract.sol\":1775:1785  numbers[i] */\n      dup2\n      sload\n      dup2\n      lt\n      tag_64\n      jumpi\n      tag_65\n      tag_52\n      jump\t// in\n    tag_65:\n    tag_64:\n      swap1\n      0x00\n      mstore\n      keccak256(0x00, 0x20)\n      add\n        /* \"contracts/firstcontract.sol\":1775:1800  numbers[i] = numbers[i+1] */\n      dup2\n      swap1\n      sstore\n      pop\n        /* \"contracts/firstcontract.sol\":1759:1762  i++ */\n      dup1\n      dup1\n      0x01\n      add\n      swap2\n      pop\n      pop\n        /* \"contracts/firstcontract.sol\":1714:1811  for (uint i = _index; i< numbers.length - 1; i++) {... */\n      jump(tag_54)\n    tag_55:\n      pop\n        /* \"contracts/firstcontract.sol\":1821:1828  numbers */\n      0x04\n        /* \"contracts/firstcontract.sol\":1821:1834  numbers.pop() */\n      dup1\n      sload\n      dup1\n      tag_67\n      jumpi\n      tag_68\n      tag_69\n      jump\t// in\n    tag_68:\n    tag_67:\n      0x01\n      swap1\n      sub\n      dup2\n      dup2\n      swap1\n      0x00\n      mstore\n      keccak256(0x00, 0x20)\n      add\n      0x00\n      swap1\n      sstore\n      swap1\n      sstore\n        /* \"contracts/firstcontract.sol\":1852:1856  true */\n      0x01\n        /* \"contracts/firstcontract.sol\":1845:1856  return true */\n      swap1\n      pop\n        /* \"contracts/firstcontract.sol\":1614:1865  function leftShiftDel(uint _index) public  returns (bool) {... */\n      swap2\n      swap1\n      pop\n      jump\t// out\n        /* \"contracts/firstcontract.sol\":146:163  uint public value */\n    tag_24:\n      sload(0x01)\n      dup2\n      jump\t// out\n        /* \"contracts/firstcontract.sol\":950:1036  function getnumberLen() public view returns(uint) {... */\n    tag_27:\n        /* \"contracts/firstcontract.sol\":994:998  uint */\n      0x00\n        /* \"contracts/firstcontract.sol\":1014:1021  numbers */\n      0x04\n        /* \"contracts/firstcontract.sol\":1014:1028  numbers.length */\n      dup1\n      sload\n      swap1\n      pop\n        /* \"contracts/firstcontract.sol\":1007:1028  return numbers.length */\n      swap1\n      pop\n        /* \"contracts/firstcontract.sol\":950:1036  function getnumberLen() public view returns(uint) {... */\n      swap1\n      jump\t// out\n        /* \"contracts/firstcontract.sol\":1437:1608  function randomShiftDel(uint _index) public  returns (bool) {... */\n    tag_31:\n        /* \"contracts/firstcontract.sol\":1491:1495  bool */\n      0x00\n        /* \"contracts/firstcontract.sol\":1526:1533  numbers */\n      0x04\n        /* \"contracts/firstcontract.sol\":1551:1552  1 */\n      0x01\n        /* \"contracts/firstcontract.sol\":1534:1541  numbers */\n      0x04\n        /* \"contracts/firstcontract.sol\":1534:1548  numbers.length */\n      dup1\n      sload\n      swap1\n      pop\n        /* \"contracts/firstcontract.sol\":1534:1552  numbers.length - 1 */\n      tag_73\n      swap2\n      swap1\n      tag_58\n      jump\t// in\n    tag_73:\n        /* \"contracts/firstcontract.sol\":1526:1553  numbers[numbers.length - 1] */\n      dup2\n      sload\n      dup2\n      lt\n      tag_74\n      jumpi\n      tag_75\n      tag_52\n      jump\t// in\n    tag_75:\n    tag_74:\n      swap1\n      0x00\n      mstore\n      keccak256(0x00, 0x20)\n      add\n      sload\n        /* \"contracts/firstcontract.sol\":1508:1515  numbers */\n      0x04\n        /* \"contracts/firstcontract.sol\":1516:1522  _index */\n      dup4\n        /* \"contracts/firstcontract.sol\":1508:1523  numbers[_index] */\n      dup2\n      sload\n      dup2\n      lt\n      tag_77\n      jumpi\n      tag_78\n      tag_52\n      jump\t// in\n    tag_78:\n    tag_77:\n      swap1\n      0x00\n      mstore\n      keccak256(0x00, 0x20)\n      add\n        /* \"contracts/firstcontract.sol\":1508:1553  numbers[_index] = numbers[numbers.length - 1] */\n      dup2\n      swap1\n      sstore\n      pop\n        /* \"contracts/firstcontract.sol\":1564:1571  numbers */\n      0x04\n        /* \"contracts/firstcontract.sol\":1564:1577  numbers.pop() */\n      dup1\n      sload\n      dup1\n      tag_80\n      jumpi\n      tag_81\n      tag_69\n      jump\t// in\n    tag_81:\n    tag_80:\n      0x01\n      swap1\n      sub\n      dup2\n      dup2\n      swap1\n      0x00\n      mstore\n      keccak256(0x00, 0x20)\n      add\n      0x00\n      swap1\n      sstore\n      swap1\n      sstore\n        /* \"contracts/firstcontract.sol\":1595:1599  true */\n      0x01\n        /* \"contracts/firstcontract.sol\":1588:1599  return true */\n      swap1\n      pop\n        /* \"contracts/firstcontract.sol\":1437:1608  function randomShiftDel(uint _index) public  returns (bool) {... */\n      swap2\n      swap1\n      pop\n      jump\t// out\n        /* \"contracts/firstcontract.sol\":1044:1150  function getnumberIndex(uint index) public view returns (uint){... */\n    tag_35:\n        /* \"contracts/firstcontract.sol\":1101:1105  uint */\n      0x00\n        /* \"contracts/firstcontract.sol\":1124:1131  numbers */\n      0x04\n        /* \"contracts/firstcontract.sol\":1132:1137  index */\n      dup3\n        /* \"contracts/firstcontract.sol\":1124:1138  numbers[index] */\n      dup2\n      sload\n      dup2\n      lt\n      tag_84\n      jumpi\n      tag_85\n      tag_52\n      jump\t// in\n    tag_85:\n    tag_84:\n      swap1\n      0x00\n      mstore\n      keccak256(0x00, 0x20)\n      add\n      sload\n        /* \"contracts/firstcontract.sol\":1117:1138  return numbers[index] */\n      swap1\n      pop\n        /* \"contracts/firstcontract.sol\":1044:1150  function getnumberIndex(uint index) public view returns (uint){... */\n      swap2\n      swap1\n      pop\n      jump\t// out\n        /* \"contracts/firstcontract.sol\":1158:1235  function addNum(uint _number) public {... */\n    tag_39:\n        /* \"contracts/firstcontract.sol\":1206:1213  numbers */\n      0x04\n        /* \"contracts/firstcontract.sol\":1219:1226  _number */\n      dup2\n        /* \"contracts/firstcontract.sol\":1206:1227  numbers.push(_number) */\n      swap1\n      dup1\n      0x01\n      dup2\n      sload\n      add\n      dup1\n      dup3\n      sstore\n      dup1\n      swap2\n      pop\n      pop\n      0x01\n      swap1\n      sub\n      swap1\n      0x00\n      mstore\n      keccak256(0x00, 0x20)\n      add\n      0x00\n      swap1\n      swap2\n      swap1\n      swap2\n      swap1\n      swap2\n      pop\n      sstore\n        /* \"contracts/firstcontract.sol\":1158:1235  function addNum(uint _number) public {... */\n      pop\n      jump\t// out\n        /* \"contracts/firstcontract.sol\":581:944  function CreateCar(... */\n    tag_43:\n        /* \"contracts/firstcontract.sol\":742:752  Car memory */\n      tag_89\n      tag_90\n      jump\t// in\n    tag_89:\n        /* \"contracts/firstcontract.sol\":760:777  Car memory newCar */\n      0x00\n        /* \"contracts/firstcontract.sol\":780:918  Car({... */\n      mload(0x40)\n      dup1\n      0xa0\n      add\n      0x40\n      mstore\n      dup1\n        /* \"contracts/firstcontract.sol\":801:806  _name */\n      dup11\n      dup11\n        /* \"contracts/firstcontract.sol\":780:918  Car({... */\n      dup1\n      dup1\n      0x1f\n      add\n      0x20\n      dup1\n      swap2\n      div\n      mul\n      0x20\n      add\n      mload(0x40)\n      swap1\n      dup2\n      add\n      0x40\n      mstore\n      dup1\n      swap4\n      swap3\n      swap2\n      swap1\n      dup2\n      dup2\n      mstore\n      0x20\n      add\n      dup4\n      dup4\n      dup1\n      dup3\n      dup5\n      calldatacopy\n      0x00\n      dup2\n      dup5\n      add\n      mstore\n      not(0x1f)\n      0x1f\n      dup3\n      add\n      and\n      swap1\n      pop\n      dup1\n      dup4\n      add\n      swap3\n      pop\n      pop\n      pop\n      pop\n      pop\n      pop\n      pop\n      dup2\n      mstore\n      0x20\n      add\n        /* \"contracts/firstcontract.sol\":823:828  _year */\n      dup9\n        /* \"contracts/firstcontract.sol\":780:918  Car({... */\n      dup2\n      mstore\n      0x20\n      add\n        /* \"contracts/firstcontract.sol\":849:858  _CarBrand */\n      dup8\n        /* \"contracts/firstcontract.sol\":780:918  Car({... */\n      0x02\n      dup2\n      gt\n      iszero\n      tag_92\n      jumpi\n      tag_93\n      tag_94\n      jump\t// in\n    tag_93:\n    tag_92:\n      dup2\n      mstore\n      0x20\n      add\n        /* \"contracts/firstcontract.sol\":876:882  _color */\n      dup7\n      dup7\n        /* \"contracts/firstcontract.sol\":780:918  Car({... */\n      dup1\n      dup1\n      0x1f\n      add\n      0x20\n      dup1\n      swap2\n      div\n      mul\n      0x20\n      add\n      mload(0x40)\n      swap1\n      dup2\n      add\n      0x40\n      mstore\n      dup1\n      swap4\n      swap3\n      swap2\n      swap1\n      dup2\n      dup2\n      mstore\n      0x20\n      add\n      dup4\n      dup4\n      dup1\n      dup3\n      dup5\n      calldatacopy\n      0x00\n      dup2\n      dup5\n      add\n      mstore\n      not(0x1f)\n      0x1f\n      dup3\n      add\n      and\n      swap1\n      pop\n      dup1\n      dup4\n      add\n      swap3\n      pop\n      pop\n      pop\n      pop\n      pop\n      pop\n      pop\n      dup2\n      mstore\n      0x20\n      add\n        /* \"contracts/firstcontract.sol\":903:912  _CarModel */\n      dup5\n        /* \"contracts/firstcontract.sol\":780:918  Car({... */\n      0x02\n      dup2\n      gt\n      iszero\n      tag_95\n      jumpi\n      tag_96\n      tag_94\n      jump\t// in\n    tag_96:\n    tag_95:\n      dup2\n      mstore\n      pop\n        /* \"contracts/firstcontract.sol\":760:918  Car memory newCar = Car({... */\n      swap1\n      pop\n        /* \"contracts/firstcontract.sol\":932:938  newCar */\n      dup1\n        /* \"contracts/firstcontract.sol\":925:938  return newCar */\n      swap2\n      pop\n      pop\n        /* \"contracts/firstcontract.sol\":581:944  function CreateCar(... */\n      swap8\n      swap7\n      pop\n      pop\n      pop\n      pop\n      pop\n      pop\n      pop\n      jump\t// out\n        /* \"contracts/firstcontract.sol\":1241:1431  function popNum() public returns (bool){... */\n    tag_47:\n        /* \"contracts/firstcontract.sol\":1275:1279  bool */\n      0x00\n        /* \"contracts/firstcontract.sol\":1311:1312  1 */\n      0x01\n        /* \"contracts/firstcontract.sol\":1294:1301  numbers */\n      0x04\n        /* \"contracts/firstcontract.sol\":1294:1308  numbers.length */\n      dup1\n      sload\n      swap1\n      pop\n        /* \"contracts/firstcontract.sol\":1294:1312  numbers.length > 1 */\n      gt\n        /* \"contracts/firstcontract.sol\":1291:1424  if(numbers.length > 1){... */\n      iszero\n      tag_98\n      jumpi\n        /* \"contracts/firstcontract.sol\":1328:1335  numbers */\n      0x04\n        /* \"contracts/firstcontract.sol\":1328:1341  numbers.pop() */\n      dup1\n      sload\n      dup1\n      tag_99\n      jumpi\n      tag_100\n      tag_69\n      jump\t// in\n    tag_100:\n    tag_99:\n      0x01\n      swap1\n      sub\n      dup2\n      dup2\n      swap1\n      0x00\n      mstore\n      keccak256(0x00, 0x20)\n      add\n      0x00\n      swap1\n      sstore\n      swap1\n      sstore\n        /* \"contracts/firstcontract.sol\":1363:1367  true */\n      0x01\n        /* \"contracts/firstcontract.sol\":1356:1367  return true */\n      swap1\n      pop\n      jump(tag_97)\n        /* \"contracts/firstcontract.sol\":1291:1424  if(numbers.length > 1){... */\n    tag_98:\n        /* \"contracts/firstcontract.sol\":1407:1412  false */\n      0x00\n        /* \"contracts/firstcontract.sol\":1400:1412  return false */\n      swap1\n      pop\n        /* \"contracts/firstcontract.sol\":1241:1431  function popNum() public returns (bool){... */\n    tag_97:\n      swap1\n      jump\t// out\n    tag_90:\n      mload(0x40)\n      dup1\n      0xa0\n      add\n      0x40\n      mstore\n      dup1\n      0x60\n      dup2\n      mstore\n      0x20\n      add\n      0x00\n      dup2\n      mstore\n      0x20\n      add\n      0x00\n      0x02\n      dup2\n      gt\n      iszero\n      tag_103\n      jumpi\n      tag_104\n      tag_94\n      jump\t// in\n    tag_104:\n    tag_103:\n      dup2\n      mstore\n      0x20\n      add\n      0x60\n      dup2\n      mstore\n      0x20\n      add\n      0x00\n      0x02\n      dup2\n      gt\n      iszero\n      tag_105\n      jumpi\n      tag_106\n      tag_94\n      jump\t// in\n    tag_106:\n    tag_105:\n      dup2\n      mstore\n      pop\n      swap1\n      jump\t// out\n        /* \"#utility.yul\":7:84   */\n    tag_107:\n        /* \"#utility.yul\":44:51   */\n      0x00\n        /* \"#utility.yul\":73:78   */\n      dup2\n        /* \"#utility.yul\":62:78   */\n      swap1\n      pop\n        /* \"#utility.yul\":7:84   */\n      swap2\n      swap1\n      pop\n      jump\t// out\n        /* \"#utility.yul\":90:208   */\n    tag_108:\n        /* \"#utility.yul\":177:201   */\n      tag_143\n        /* \"#utility.yul\":195:200   */\n      dup2\n        /* \"#utility.yul\":177:201   */\n      tag_107\n      jump\t// in\n    tag_143:\n        /* \"#utility.yul\":172:175   */\n      dup3\n        /* \"#utility.yul\":165:202   */\n      mstore\n        /* \"#utility.yul\":90:208   */\n      pop\n      pop\n      jump\t// out\n        /* \"#utility.yul\":214:436   */\n    tag_16:\n        /* \"#utility.yul\":307:311   */\n      0x00\n        /* \"#utility.yul\":345:347   */\n      0x20\n        /* \"#utility.yul\":334:343   */\n      dup3\n        /* \"#utility.yul\":330:348   */\n      add\n        /* \"#utility.yul\":322:348   */\n      swap1\n      pop\n        /* \"#utility.yul\":358:429   */\n      tag_145\n        /* \"#utility.yul\":426:427   */\n      0x00\n        /* \"#utility.yul\":415:424   */\n      dup4\n        /* \"#utility.yul\":411:428   */\n      add\n        /* \"#utility.yul\":402:408   */\n      dup5\n        /* \"#utility.yul\":358:429   */\n      tag_108\n      jump\t// in\n    tag_145:\n        /* \"#utility.yul\":214:436   */\n      swap3\n      swap2\n      pop\n      pop\n      jump\t// out\n        /* \"#utility.yul\":523:640   */\n    tag_110:\n        /* \"#utility.yul\":632:633   */\n      0x00\n        /* \"#utility.yul\":629:630   */\n      dup1\n        /* \"#utility.yul\":622:634   */\n      revert\n        /* \"#utility.yul\":646:763   */\n    tag_111:\n        /* \"#utility.yul\":755:756   */\n      0x00\n        /* \"#utility.yul\":752:753   */\n      dup1\n        /* \"#utility.yul\":745:757   */\n      revert\n        /* \"#utility.yul\":769:891   */\n    tag_112:\n        /* \"#utility.yul\":842:866   */\n      tag_150\n        /* \"#utility.yul\":860:865   */\n      dup2\n        /* \"#utility.yul\":842:866   */\n      tag_107\n      jump\t// in\n    tag_150:\n        /* \"#utility.yul\":835:840   */\n      dup2\n        /* \"#utility.yul\":832:867   */\n      eq\n        /* \"#utility.yul\":822:885   */\n      tag_151\n      jumpi\n        /* \"#utility.yul\":881:882   */\n      0x00\n        /* \"#utility.yul\":878:879   */\n      dup1\n        /* \"#utility.yul\":871:883   */\n      revert\n        /* \"#utility.yul\":822:885   */\n    tag_151:\n        /* \"#utility.yul\":769:891   */\n      pop\n      jump\t// out\n        /* \"#utility.yul\":897:1036   */\n    tag_113:\n        /* \"#utility.yul\":943:948   */\n      0x00\n        /* \"#utility.yul\":981:987   */\n      dup2\n        /* \"#utility.yul\":968:988   */\n      calldataload\n        /* \"#utility.yul\":959:988   */\n      swap1\n      pop\n        /* \"#utility.yul\":997:1030   */\n      tag_153\n        /* \"#utility.yul\":1024:1029   */\n      dup2\n        /* \"#utility.yul\":997:1030   */\n      tag_112\n      jump\t// in\n    tag_153:\n        /* \"#utility.yul\":897:1036   */\n      swap3\n      swap2\n      pop\n      pop\n      jump\t// out\n        /* \"#utility.yul\":1042:1371   */\n    tag_19:\n        /* \"#utility.yul\":1101:1107   */\n      0x00\n        /* \"#utility.yul\":1150:1152   */\n      0x20\n        /* \"#utility.yul\":1138:1147   */\n      dup3\n        /* \"#utility.yul\":1129:1136   */\n      dup5\n        /* \"#utility.yul\":1125:1148   */\n      sub\n        /* \"#utility.yul\":1121:1153   */\n      slt\n        /* \"#utility.yul\":1118:1237   */\n      iszero\n      tag_155\n      jumpi\n        /* \"#utility.yul\":1156:1235   */\n      tag_156\n      tag_110\n      jump\t// in\n    tag_156:\n        /* \"#utility.yul\":1118:1237   */\n    tag_155:\n        /* \"#utility.yul\":1276:1277   */\n      0x00\n        /* \"#utility.yul\":1301:1354   */\n      tag_157\n        /* \"#utility.yul\":1346:1353   */\n      dup5\n        /* \"#utility.yul\":1337:1343   */\n      dup3\n        /* \"#utility.yul\":1326:1335   */\n      dup6\n        /* \"#utility.yul\":1322:1344   */\n      add\n        /* \"#utility.yul\":1301:1354   */\n      tag_113\n      jump\t// in\n    tag_157:\n        /* \"#utility.yul\":1291:1354   */\n      swap2\n      pop\n        /* \"#utility.yul\":1247:1364   */\n      pop\n        /* \"#utility.yul\":1042:1371   */\n      swap3\n      swap2\n      pop\n      pop\n      jump\t// out\n        /* \"#utility.yul\":1377:1467   */\n    tag_114:\n        /* \"#utility.yul\":1411:1418   */\n      0x00\n        /* \"#utility.yul\":1454:1459   */\n      dup2\n        /* \"#utility.yul\":1447:1460   */\n      iszero\n        /* \"#utility.yul\":1440:1461   */\n      iszero\n        /* \"#utility.yul\":1429:1461   */\n      swap1\n      pop\n        /* \"#utility.yul\":1377:1467   */\n      swap2\n      swap1\n      pop\n      jump\t// out\n        /* \"#utility.yul\":1473:1582   */\n    tag_115:\n        /* \"#utility.yul\":1554:1575   */\n      tag_160\n        /* \"#utility.yul\":1569:1574   */\n      dup2\n        /* \"#utility.yul\":1554:1575   */\n      tag_114\n      jump\t// in\n    tag_160:\n        /* \"#utility.yul\":1549:1552   */\n      dup3\n        /* \"#utility.yul\":1542:1576   */\n      mstore\n        /* \"#utility.yul\":1473:1582   */\n      pop\n      pop\n      jump\t// out\n        /* \"#utility.yul\":1588:1798   */\n    tag_22:\n        /* \"#utility.yul\":1675:1679   */\n      0x00\n        /* \"#utility.yul\":1713:1715   */\n      0x20\n        /* \"#utility.yul\":1702:1711   */\n      dup3\n        /* \"#utility.yul\":1698:1716   */\n      add\n        /* \"#utility.yul\":1690:1716   */\n      swap1\n      pop\n        /* \"#utility.yul\":1726:1791   */\n      tag_162\n        /* \"#utility.yul\":1788:1789   */\n      0x00\n        /* \"#utility.yul\":1777:1786   */\n      dup4\n        /* \"#utility.yul\":1773:1790   */\n      add\n        /* \"#utility.yul\":1764:1770   */\n      dup5\n        /* \"#utility.yul\":1726:1791   */\n      tag_115\n      jump\t// in\n    tag_162:\n        /* \"#utility.yul\":1588:1798   */\n      swap3\n      swap2\n      pop\n      pop\n      jump\t// out\n        /* \"#utility.yul\":1804:1921   */\n    tag_116:\n        /* \"#utility.yul\":1913:1914   */\n      0x00\n        /* \"#utility.yul\":1910:1911   */\n      dup1\n        /* \"#utility.yul\":1903:1915   */\n      revert\n        /* \"#utility.yul\":1927:2044   */\n    tag_117:\n        /* \"#utility.yul\":2036:2037   */\n      0x00\n        /* \"#utility.yul\":2033:2034   */\n      dup1\n        /* \"#utility.yul\":2026:2038   */\n      revert\n        /* \"#utility.yul\":2050:2167   */\n    tag_118:\n        /* \"#utility.yul\":2159:2160   */\n      0x00\n        /* \"#utility.yul\":2156:2157   */\n      dup1\n        /* \"#utility.yul\":2149:2161   */\n      revert\n        /* \"#utility.yul\":2187:2740   */\n    tag_119:\n        /* \"#utility.yul\":2245:2253   */\n      0x00\n        /* \"#utility.yul\":2255:2261   */\n      dup1\n        /* \"#utility.yul\":2305:2308   */\n      dup4\n        /* \"#utility.yul\":2298:2302   */\n      0x1f\n        /* \"#utility.yul\":2290:2296   */\n      dup5\n        /* \"#utility.yul\":2286:2303   */\n      add\n        /* \"#utility.yul\":2282:2309   */\n      slt\n        /* \"#utility.yul\":2272:2394   */\n      tag_167\n      jumpi\n        /* \"#utility.yul\":2313:2392   */\n      tag_168\n      tag_116\n      jump\t// in\n    tag_168:\n        /* \"#utility.yul\":2272:2394   */\n    tag_167:\n        /* \"#utility.yul\":2426:2432   */\n      dup3\n        /* \"#utility.yul\":2413:2433   */\n      calldataload\n        /* \"#utility.yul\":2403:2433   */\n      swap1\n      pop\n        /* \"#utility.yul\":2456:2474   */\n      0xffffffffffffffff\n        /* \"#utility.yul\":2448:2454   */\n      dup2\n        /* \"#utility.yul\":2445:2475   */\n      gt\n        /* \"#utility.yul\":2442:2559   */\n      iszero\n      tag_169\n      jumpi\n        /* \"#utility.yul\":2478:2557   */\n      tag_170\n      tag_117\n      jump\t// in\n    tag_170:\n        /* \"#utility.yul\":2442:2559   */\n    tag_169:\n        /* \"#utility.yul\":2592:2596   */\n      0x20\n        /* \"#utility.yul\":2584:2590   */\n      dup4\n        /* \"#utility.yul\":2580:2597   */\n      add\n        /* \"#utility.yul\":2568:2597   */\n      swap2\n      pop\n        /* \"#utility.yul\":2646:2649   */\n      dup4\n        /* \"#utility.yul\":2638:2642   */\n      0x01\n        /* \"#utility.yul\":2630:2636   */\n      dup3\n        /* \"#utility.yul\":2626:2643   */\n      mul\n        /* \"#utility.yul\":2616:2624   */\n      dup4\n        /* \"#utility.yul\":2612:2644   */\n      add\n        /* \"#utility.yul\":2609:2650   */\n      gt\n        /* \"#utility.yul\":2606:2734   */\n      iszero\n      tag_171\n      jumpi\n        /* \"#utility.yul\":2653:2732   */\n      tag_172\n      tag_118\n      jump\t// in\n    tag_172:\n        /* \"#utility.yul\":2606:2734   */\n    tag_171:\n        /* \"#utility.yul\":2187:2740   */\n      swap3\n      pop\n      swap3\n      swap1\n      pop\n      jump\t// out\n        /* \"#utility.yul\":2746:2856   */\n    tag_120:\n        /* \"#utility.yul\":2830:2831   */\n      0x03\n        /* \"#utility.yul\":2823:2828   */\n      dup2\n        /* \"#utility.yul\":2820:2832   */\n      lt\n        /* \"#utility.yul\":2810:2850   */\n      tag_174\n      jumpi\n        /* \"#utility.yul\":2846:2847   */\n      0x00\n        /* \"#utility.yul\":2843:2844   */\n      dup1\n        /* \"#utility.yul\":2836:2848   */\n      revert\n        /* \"#utility.yul\":2810:2850   */\n    tag_174:\n        /* \"#utility.yul\":2746:2856   */\n      pop\n      jump\t// out\n        /* \"#utility.yul\":2862:3023   */\n    tag_121:\n        /* \"#utility.yul\":2919:2924   */\n      0x00\n        /* \"#utility.yul\":2957:2963   */\n      dup2\n        /* \"#utility.yul\":2944:2964   */\n      calldataload\n        /* \"#utility.yul\":2935:2964   */\n      swap1\n      pop\n        /* \"#utility.yul\":2973:3017   */\n      tag_176\n        /* \"#utility.yul\":3011:3016   */\n      dup2\n        /* \"#utility.yul\":2973:3017   */\n      tag_120\n      jump\t// in\n    tag_176:\n        /* \"#utility.yul\":2862:3023   */\n      swap3\n      swap2\n      pop\n      pop\n      jump\t// out\n        /* \"#utility.yul\":3029:3139   */\n    tag_122:\n        /* \"#utility.yul\":3113:3114   */\n      0x03\n        /* \"#utility.yul\":3106:3111   */\n      dup2\n        /* \"#utility.yul\":3103:3115   */\n      lt\n        /* \"#utility.yul\":3093:3133   */\n      tag_178\n      jumpi\n        /* \"#utility.yul\":3129:3130   */\n      0x00\n        /* \"#utility.yul\":3126:3127   */\n      dup1\n        /* \"#utility.yul\":3119:3131   */\n      revert\n        /* \"#utility.yul\":3093:3133   */\n    tag_178:\n        /* \"#utility.yul\":3029:3139   */\n      pop\n      jump\t// out\n        /* \"#utility.yul\":3145:3306   */\n    tag_123:\n        /* \"#utility.yul\":3202:3207   */\n      0x00\n        /* \"#utility.yul\":3240:3246   */\n      dup2\n        /* \"#utility.yul\":3227:3247   */\n      calldataload\n        /* \"#utility.yul\":3218:3247   */\n      swap1\n      pop\n        /* \"#utility.yul\":3256:3300   */\n      tag_180\n        /* \"#utility.yul\":3294:3299   */\n      dup2\n        /* \"#utility.yul\":3256:3300   */\n      tag_122\n      jump\t// in\n    tag_180:\n        /* \"#utility.yul\":3145:3306   */\n      swap3\n      swap2\n      pop\n      pop\n      jump\t// out\n        /* \"#utility.yul\":3312:4667   */\n    tag_42:\n        /* \"#utility.yul\":3453:3459   */\n      0x00\n        /* \"#utility.yul\":3461:3467   */\n      dup1\n        /* \"#utility.yul\":3469:3475   */\n      0x00\n        /* \"#utility.yul\":3477:3483   */\n      dup1\n        /* \"#utility.yul\":3485:3491   */\n      0x00\n        /* \"#utility.yul\":3493:3499   */\n      dup1\n        /* \"#utility.yul\":3501:3507   */\n      0x00\n        /* \"#utility.yul\":3550:3553   */\n      0xa0\n        /* \"#utility.yul\":3538:3547   */\n      dup9\n        /* \"#utility.yul\":3529:3536   */\n      dup11\n        /* \"#utility.yul\":3525:3548   */\n      sub\n        /* \"#utility.yul\":3521:3554   */\n      slt\n        /* \"#utility.yul\":3518:3638   */\n      iszero\n      tag_182\n      jumpi\n        /* \"#utility.yul\":3557:3636   */\n      tag_183\n      tag_110\n      jump\t// in\n    tag_183:\n        /* \"#utility.yul\":3518:3638   */\n    tag_182:\n        /* \"#utility.yul\":3705:3706   */\n      0x00\n        /* \"#utility.yul\":3694:3703   */\n      dup9\n        /* \"#utility.yul\":3690:3707   */\n      add\n        /* \"#utility.yul\":3677:3708   */\n      calldataload\n        /* \"#utility.yul\":3735:3753   */\n      0xffffffffffffffff\n        /* \"#utility.yul\":3727:3733   */\n      dup2\n        /* \"#utility.yul\":3724:3754   */\n      gt\n        /* \"#utility.yul\":3721:3838   */\n      iszero\n      tag_184\n      jumpi\n        /* \"#utility.yul\":3757:3836   */\n      tag_185\n      tag_111\n      jump\t// in\n    tag_185:\n        /* \"#utility.yul\":3721:3838   */\n    tag_184:\n        /* \"#utility.yul\":3870:3935   */\n      tag_186\n        /* \"#utility.yul\":3927:3934   */\n      dup11\n        /* \"#utility.yul\":3918:3924   */\n      dup3\n        /* \"#utility.yul\":3907:3916   */\n      dup12\n        /* \"#utility.yul\":3903:3925   */\n      add\n        /* \"#utility.yul\":3870:3935   */\n      tag_119\n      jump\t// in\n    tag_186:\n        /* \"#utility.yul\":3852:3935   */\n      swap8\n      pop\n      swap8\n      pop\n        /* \"#utility.yul\":3648:3945   */\n      pop\n        /* \"#utility.yul\":3984:3986   */\n      0x20\n        /* \"#utility.yul\":4010:4063   */\n      tag_187\n        /* \"#utility.yul\":4055:4062   */\n      dup11\n        /* \"#utility.yul\":4046:4052   */\n      dup3\n        /* \"#utility.yul\":4035:4044   */\n      dup12\n        /* \"#utility.yul\":4031:4053   */\n      add\n        /* \"#utility.yul\":4010:4063   */\n      tag_113\n      jump\t// in\n    tag_187:\n        /* \"#utility.yul\":4000:4063   */\n      swap6\n      pop\n        /* \"#utility.yul\":3955:4073   */\n      pop\n        /* \"#utility.yul\":4112:4114   */\n      0x40\n        /* \"#utility.yul\":4138:4202   */\n      tag_188\n        /* \"#utility.yul\":4194:4201   */\n      dup11\n        /* \"#utility.yul\":4185:4191   */\n      dup3\n        /* \"#utility.yul\":4174:4183   */\n      dup12\n        /* \"#utility.yul\":4170:4192   */\n      add\n        /* \"#utility.yul\":4138:4202   */\n      tag_121\n      jump\t// in\n    tag_188:\n        /* \"#utility.yul\":4128:4202   */\n      swap5\n      pop\n        /* \"#utility.yul\":4083:4212   */\n      pop\n        /* \"#utility.yul\":4279:4281   */\n      0x60\n        /* \"#utility.yul\":4268:4277   */\n      dup9\n        /* \"#utility.yul\":4264:4282   */\n      add\n        /* \"#utility.yul\":4251:4283   */\n      calldataload\n        /* \"#utility.yul\":4310:4328   */\n      0xffffffffffffffff\n        /* \"#utility.yul\":4302:4308   */\n      dup2\n        /* \"#utility.yul\":4299:4329   */\n      gt\n        /* \"#utility.yul\":4296:4413   */\n      iszero\n      tag_189\n      jumpi\n        /* \"#utility.yul\":4332:4411   */\n      tag_190\n      tag_111\n      jump\t// in\n    tag_190:\n        /* \"#utility.yul\":4296:4413   */\n    tag_189:\n        /* \"#utility.yul\":4445:4510   */\n      tag_191\n        /* \"#utility.yul\":4502:4509   */\n      dup11\n        /* \"#utility.yul\":4493:4499   */\n      dup3\n        /* \"#utility.yul\":4482:4491   */\n      dup12\n        /* \"#utility.yul\":4478:4500   */\n      add\n        /* \"#utility.yul\":4445:4510   */\n      tag_119\n      jump\t// in\n    tag_191:\n        /* \"#utility.yul\":4427:4510   */\n      swap4\n      pop\n      swap4\n      pop\n        /* \"#utility.yul\":4222:4520   */\n      pop\n        /* \"#utility.yul\":4559:4562   */\n      0x80\n        /* \"#utility.yul\":4586:4650   */\n      tag_192\n        /* \"#utility.yul\":4642:4649   */\n      dup11\n        /* \"#utility.yul\":4633:4639   */\n      dup3\n        /* \"#utility.yul\":4622:4631   */\n      dup12\n        /* \"#utility.yul\":4618:4640   */\n      add\n        /* \"#utility.yul\":4586:4650   */\n      tag_123\n      jump\t// in\n    tag_192:\n        /* \"#utility.yul\":4576:4650   */\n      swap2\n      pop\n        /* \"#utility.yul\":4530:4660   */\n      pop\n        /* \"#utility.yul\":3312:4667   */\n      swap3\n      swap6\n      swap9\n      swap2\n      swap5\n      swap8\n      pop\n      swap3\n      swap6\n      pop\n      jump\t// out\n        /* \"#utility.yul\":4673:4772   */\n    tag_124:\n        /* \"#utility.yul\":4725:4731   */\n      0x00\n        /* \"#utility.yul\":4759:4764   */\n      dup2\n        /* \"#utility.yul\":4753:4765   */\n      mload\n        /* \"#utility.yul\":4743:4765   */\n      swap1\n      pop\n        /* \"#utility.yul\":4673:4772   */\n      swap2\n      swap1\n      pop\n      jump\t// out\n        /* \"#utility.yul\":4778:4937   */\n    tag_125:\n        /* \"#utility.yul\":4852:4863   */\n      0x00\n        /* \"#utility.yul\":4886:4892   */\n      dup3\n        /* \"#utility.yul\":4881:4884   */\n      dup3\n        /* \"#utility.yul\":4874:4893   */\n      mstore\n        /* \"#utility.yul\":4926:4930   */\n      0x20\n        /* \"#utility.yul\":4921:4924   */\n      dup3\n        /* \"#utility.yul\":4917:4931   */\n      add\n        /* \"#utility.yul\":4902:4931   */\n      swap1\n      pop\n        /* \"#utility.yul\":4778:4937   */\n      swap3\n      swap2\n      pop\n      pop\n      jump\t// out\n        /* \"#utility.yul\":4943:5082   */\n    tag_126:\n        /* \"#utility.yul\":5032:5038   */\n      dup3\n        /* \"#utility.yul\":5027:5030   */\n      dup2\n        /* \"#utility.yul\":5022:5025   */\n      dup4\n        /* \"#utility.yul\":5016:5039   */\n      mcopy\n        /* \"#utility.yul\":5073:5074   */\n      0x00\n        /* \"#utility.yul\":5064:5070   */\n      dup4\n        /* \"#utility.yul\":5059:5062   */\n      dup4\n        /* \"#utility.yul\":5055:5071   */\n      add\n        /* \"#utility.yul\":5048:5075   */\n      mstore\n        /* \"#utility.yul\":4943:5082   */\n      pop\n      pop\n      pop\n      jump\t// out\n        /* \"#utility.yul\":5088:5190   */\n    tag_127:\n        /* \"#utility.yul\":5129:5135   */\n      0x00\n        /* \"#utility.yul\":5180:5182   */\n      0x1f\n        /* \"#utility.yul\":5176:5183   */\n      not\n        /* \"#utility.yul\":5171:5173   */\n      0x1f\n        /* \"#utility.yul\":5164:5169   */\n      dup4\n        /* \"#utility.yul\":5160:5174   */\n      add\n        /* \"#utility.yul\":5156:5184   */\n      and\n        /* \"#utility.yul\":5146:5184   */\n      swap1\n      pop\n        /* \"#utility.yul\":5088:5190   */\n      swap2\n      swap1\n      pop\n      jump\t// out\n        /* \"#utility.yul\":5196:5553   */\n    tag_128:\n        /* \"#utility.yul\":5274:5277   */\n      0x00\n        /* \"#utility.yul\":5302:5341   */\n      tag_198\n        /* \"#utility.yul\":5335:5340   */\n      dup3\n        /* \"#utility.yul\":5302:5341   */\n      tag_124\n      jump\t// in\n    tag_198:\n        /* \"#utility.yul\":5357:5418   */\n      tag_199\n        /* \"#utility.yul\":5411:5417   */\n      dup2\n        /* \"#utility.yul\":5406:5409   */\n      dup6\n        /* \"#utility.yul\":5357:5418   */\n      tag_125\n      jump\t// in\n    tag_199:\n        /* \"#utility.yul\":5350:5418   */\n      swap4\n      pop\n        /* \"#utility.yul\":5427:5492   */\n      tag_200\n        /* \"#utility.yul\":5485:5491   */\n      dup2\n        /* \"#utility.yul\":5480:5483   */\n      dup6\n        /* \"#utility.yul\":5473:5477   */\n      0x20\n        /* \"#utility.yul\":5466:5471   */\n      dup7\n        /* \"#utility.yul\":5462:5478   */\n      add\n        /* \"#utility.yul\":5427:5492   */\n      tag_126\n      jump\t// in\n    tag_200:\n        /* \"#utility.yul\":5517:5546   */\n      tag_201\n        /* \"#utility.yul\":5539:5545   */\n      dup2\n        /* \"#utility.yul\":5517:5546   */\n      tag_127\n      jump\t// in\n    tag_201:\n        /* \"#utility.yul\":5512:5515   */\n      dup5\n        /* \"#utility.yul\":5508:5547   */\n      add\n        /* \"#utility.yul\":5501:5547   */\n      swap2\n      pop\n        /* \"#utility.yul\":5278:5553   */\n      pop\n        /* \"#utility.yul\":5196:5553   */\n      swap3\n      swap2\n      pop\n      pop\n      jump\t// out\n        /* \"#utility.yul\":5559:5667   */\n    tag_129:\n        /* \"#utility.yul\":5636:5660   */\n      tag_203\n        /* \"#utility.yul\":5654:5659   */\n      dup2\n        /* \"#utility.yul\":5636:5660   */\n      tag_107\n      jump\t// in\n    tag_203:\n        /* \"#utility.yul\":5631:5634   */\n      dup3\n        /* \"#utility.yul\":5624:5661   */\n      mstore\n        /* \"#utility.yul\":5559:5667   */\n      pop\n      pop\n      jump\t// out\n        /* \"#utility.yul\":5673:5853   */\n    tag_94:\n        /* \"#utility.yul\":5721:5798   */\n      0x4e487b7100000000000000000000000000000000000000000000000000000000\n        /* \"#utility.yul\":5718:5719   */\n      0x00\n        /* \"#utility.yul\":5711:5799   */\n      mstore\n        /* \"#utility.yul\":5818:5822   */\n      0x21\n        /* \"#utility.yul\":5815:5816   */\n      0x04\n        /* \"#utility.yul\":5808:5823   */\n      mstore\n        /* \"#utility.yul\":5842:5846   */\n      0x24\n        /* \"#utility.yul\":5839:5840   */\n      0x00\n        /* \"#utility.yul\":5832:5847   */\n      revert\n        /* \"#utility.yul\":5859:5975   */\n    tag_130:\n        /* \"#utility.yul\":5943:5944   */\n      0x03\n        /* \"#utility.yul\":5936:5941   */\n      dup2\n        /* \"#utility.yul\":5933:5945   */\n      lt\n        /* \"#utility.yul\":5923:5969   */\n      tag_206\n      jumpi\n        /* \"#utility.yul\":5949:5967   */\n      tag_207\n      tag_94\n      jump\t// in\n    tag_207:\n        /* \"#utility.yul\":5923:5969   */\n    tag_206:\n        /* \"#utility.yul\":5859:5975   */\n      pop\n      jump\t// out\n        /* \"#utility.yul\":5981:6114   */\n    tag_131:\n        /* \"#utility.yul\":6029:6036   */\n      0x00\n        /* \"#utility.yul\":6058:6063   */\n      dup2\n        /* \"#utility.yul\":6047:6063   */\n      swap1\n      pop\n        /* \"#utility.yul\":6064:6108   */\n      tag_209\n        /* \"#utility.yul\":6102:6107   */\n      dup3\n        /* \"#utility.yul\":6064:6108   */\n      tag_130\n      jump\t// in\n    tag_209:\n        /* \"#utility.yul\":5981:6114   */\n      swap2\n      swap1\n      pop\n      jump\t// out\n        /* \"#utility.yul\":6120:6253   */\n    tag_132:\n        /* \"#utility.yul\":6179:6188   */\n      0x00\n        /* \"#utility.yul\":6212:6247   */\n      tag_211\n        /* \"#utility.yul\":6241:6246   */\n      dup3\n        /* \"#utility.yul\":6212:6247   */\n      tag_131\n      jump\t// in\n    tag_211:\n        /* \"#utility.yul\":6199:6247   */\n      swap1\n      pop\n        /* \"#utility.yul\":6120:6253   */\n      swap2\n      swap1\n      pop\n      jump\t// out\n        /* \"#utility.yul\":6259:6398   */\n    tag_133:\n        /* \"#utility.yul\":6345:6391   */\n      tag_213\n        /* \"#utility.yul\":6385:6390   */\n      dup2\n        /* \"#utility.yul\":6345:6391   */\n      tag_132\n      jump\t// in\n    tag_213:\n        /* \"#utility.yul\":6340:6343   */\n      dup3\n        /* \"#utility.yul\":6333:6392   */\n      mstore\n        /* \"#utility.yul\":6259:6398   */\n      pop\n      pop\n      jump\t// out\n        /* \"#utility.yul\":6404:6520   */\n    tag_134:\n        /* \"#utility.yul\":6488:6489   */\n      0x03\n        /* \"#utility.yul\":6481:6486   */\n      dup2\n        /* \"#utility.yul\":6478:6490   */\n      lt\n        /* \"#utility.yul\":6468:6514   */\n      tag_215\n      jumpi\n        /* \"#utility.yul\":6494:6512   */\n      tag_216\n      tag_94\n      jump\t// in\n    tag_216:\n        /* \"#utility.yul\":6468:6514   */\n    tag_215:\n        /* \"#utility.yul\":6404:6520   */\n      pop\n      jump\t// out\n        /* \"#utility.yul\":6526:6659   */\n    tag_135:\n        /* \"#utility.yul\":6574:6581   */\n      0x00\n        /* \"#utility.yul\":6603:6608   */\n      dup2\n        /* \"#utility.yul\":6592:6608   */\n      swap1\n      pop\n        /* \"#utility.yul\":6609:6653   */\n      tag_218\n        /* \"#utility.yul\":6647:6652   */\n      dup3\n        /* \"#utility.yul\":6609:6653   */\n      tag_134\n      jump\t// in\n    tag_218:\n        /* \"#utility.yul\":6526:6659   */\n      swap2\n      swap1\n      pop\n      jump\t// out\n        /* \"#utility.yul\":6665:6798   */\n    tag_136:\n        /* \"#utility.yul\":6724:6733   */\n      0x00\n        /* \"#utility.yul\":6757:6792   */\n      tag_220\n        /* \"#utility.yul\":6786:6791   */\n      dup3\n        /* \"#utility.yul\":6757:6792   */\n      tag_135\n      jump\t// in\n    tag_220:\n        /* \"#utility.yul\":6744:6792   */\n      swap1\n      pop\n        /* \"#utility.yul\":6665:6798   */\n      swap2\n      swap1\n      pop\n      jump\t// out\n        /* \"#utility.yul\":6804:6943   */\n    tag_137:\n        /* \"#utility.yul\":6890:6936   */\n      tag_222\n        /* \"#utility.yul\":6930:6935   */\n      dup2\n        /* \"#utility.yul\":6890:6936   */\n      tag_136\n      jump\t// in\n    tag_222:\n        /* \"#utility.yul\":6885:6888   */\n      dup3\n        /* \"#utility.yul\":6878:6937   */\n      mstore\n        /* \"#utility.yul\":6804:6943   */\n      pop\n      pop\n      jump\t// out\n        /* \"#utility.yul\":7009:8223   */\n    tag_138:\n        /* \"#utility.yul\":7116:7119   */\n      0x00\n        /* \"#utility.yul\":7152:7156   */\n      0xa0\n        /* \"#utility.yul\":7147:7150   */\n      dup4\n        /* \"#utility.yul\":7143:7157   */\n      add\n        /* \"#utility.yul\":7239:7243   */\n      0x00\n        /* \"#utility.yul\":7232:7237   */\n      dup4\n        /* \"#utility.yul\":7228:7244   */\n      add\n        /* \"#utility.yul\":7222:7245   */\n      mload\n        /* \"#utility.yul\":7292:7295   */\n      dup5\n        /* \"#utility.yul\":7286:7290   */\n      dup3\n        /* \"#utility.yul\":7282:7296   */\n      sub\n        /* \"#utility.yul\":7275:7279   */\n      0x00\n        /* \"#utility.yul\":7270:7273   */\n      dup7\n        /* \"#utility.yul\":7266:7280   */\n      add\n        /* \"#utility.yul\":7259:7297   */\n      mstore\n        /* \"#utility.yul\":7318:7391   */\n      tag_224\n        /* \"#utility.yul\":7386:7390   */\n      dup3\n        /* \"#utility.yul\":7372:7384   */\n      dup3\n        /* \"#utility.yul\":7318:7391   */\n      tag_128\n      jump\t// in\n    tag_224:\n        /* \"#utility.yul\":7310:7391   */\n      swap2\n      pop\n        /* \"#utility.yul\":7167:7402   */\n      pop\n        /* \"#utility.yul\":7484:7488   */\n      0x20\n        /* \"#utility.yul\":7477:7482   */\n      dup4\n        /* \"#utility.yul\":7473:7489   */\n      add\n        /* \"#utility.yul\":7467:7490   */\n      mload\n        /* \"#utility.yul\":7503:7566   */\n      tag_225\n        /* \"#utility.yul\":7560:7564   */\n      0x20\n        /* \"#utility.yul\":7555:7558   */\n      dup7\n        /* \"#utility.yul\":7551:7565   */\n      add\n        /* \"#utility.yul\":7537:7549   */\n      dup3\n        /* \"#utility.yul\":7503:7566   */\n      tag_129\n      jump\t// in\n    tag_225:\n        /* \"#utility.yul\":7412:7576   */\n      pop\n        /* \"#utility.yul\":7662:7666   */\n      0x40\n        /* \"#utility.yul\":7655:7660   */\n      dup4\n        /* \"#utility.yul\":7651:7667   */\n      add\n        /* \"#utility.yul\":7645:7668   */\n      mload\n        /* \"#utility.yul\":7681:7753   */\n      tag_226\n        /* \"#utility.yul\":7747:7751   */\n      0x40\n        /* \"#utility.yul\":7742:7745   */\n      dup7\n        /* \"#utility.yul\":7738:7752   */\n      add\n        /* \"#utility.yul\":7724:7736   */\n      dup3\n        /* \"#utility.yul\":7681:7753   */\n      tag_133\n      jump\t// in\n    tag_226:\n        /* \"#utility.yul\":7586:7763   */\n      pop\n        /* \"#utility.yul\":7846:7850   */\n      0x60\n        /* \"#utility.yul\":7839:7844   */\n      dup4\n        /* \"#utility.yul\":7835:7851   */\n      add\n        /* \"#utility.yul\":7829:7852   */\n      mload\n        /* \"#utility.yul\":7899:7902   */\n      dup5\n        /* \"#utility.yul\":7893:7897   */\n      dup3\n        /* \"#utility.yul\":7889:7903   */\n      sub\n        /* \"#utility.yul\":7882:7886   */\n      0x60\n        /* \"#utility.yul\":7877:7880   */\n      dup7\n        /* \"#utility.yul\":7873:7887   */\n      add\n        /* \"#utility.yul\":7866:7904   */\n      mstore\n        /* \"#utility.yul\":7925:7998   */\n      tag_227\n        /* \"#utility.yul\":7993:7997   */\n      dup3\n        /* \"#utility.yul\":7979:7991   */\n      dup3\n        /* \"#utility.yul\":7925:7998   */\n      tag_128\n      jump\t// in\n    tag_227:\n        /* \"#utility.yul\":7917:7998   */\n      swap2\n      pop\n        /* \"#utility.yul\":7773:8009   */\n      pop\n        /* \"#utility.yul\":8095:8099   */\n      0x80\n        /* \"#utility.yul\":8088:8093   */\n      dup4\n        /* \"#utility.yul\":8084:8100   */\n      add\n        /* \"#utility.yul\":8078:8101   */\n      mload\n        /* \"#utility.yul\":8114:8186   */\n      tag_228\n        /* \"#utility.yul\":8180:8184   */\n      0x80\n        /* \"#utility.yul\":8175:8178   */\n      dup7\n        /* \"#utility.yul\":8171:8185   */\n      add\n        /* \"#utility.yul\":8157:8169   */\n      dup3\n        /* \"#utility.yul\":8114:8186   */\n      tag_137\n      jump\t// in\n    tag_228:\n        /* \"#utility.yul\":8019:8196   */\n      pop\n        /* \"#utility.yul\":8213:8217   */\n      dup1\n        /* \"#utility.yul\":8206:8217   */\n      swap2\n      pop\n        /* \"#utility.yul\":7121:8223   */\n      pop\n        /* \"#utility.yul\":7009:8223   */\n      swap3\n      swap2\n      pop\n      pop\n      jump\t// out\n        /* \"#utility.yul\":8229:8578   */\n    tag_45:\n        /* \"#utility.yul\":8360:8364   */\n      0x00\n        /* \"#utility.yul\":8398:8400   */\n      0x20\n        /* \"#utility.yul\":8387:8396   */\n      dup3\n        /* \"#utility.yul\":8383:8401   */\n      add\n        /* \"#utility.yul\":8375:8401   */\n      swap1\n      pop\n        /* \"#utility.yul\":8447:8456   */\n      dup2\n        /* \"#utility.yul\":8441:8445   */\n      dup2\n        /* \"#utility.yul\":8437:8457   */\n      sub\n        /* \"#utility.yul\":8433:8434   */\n      0x00\n        /* \"#utility.yul\":8422:8431   */\n      dup4\n        /* \"#utility.yul\":8418:8435   */\n      add\n        /* \"#utility.yul\":8411:8458   */\n      mstore\n        /* \"#utility.yul\":8475:8571   */\n      tag_230\n        /* \"#utility.yul\":8566:8570   */\n      dup2\n        /* \"#utility.yul\":8557:8563   */\n      dup5\n        /* \"#utility.yul\":8475:8571   */\n      tag_138\n      jump\t// in\n    tag_230:\n        /* \"#utility.yul\":8467:8571   */\n      swap1\n      pop\n        /* \"#utility.yul\":8229:8578   */\n      swap3\n      swap2\n      pop\n      pop\n      jump\t// out\n        /* \"#utility.yul\":8584:8764   */\n    tag_52:\n        /* \"#utility.yul\":8632:8709   */\n      0x4e487b7100000000000000000000000000000000000000000000000000000000\n        /* \"#utility.yul\":8629:8630   */\n      0x00\n        /* \"#utility.yul\":8622:8710   */\n      mstore\n        /* \"#utility.yul\":8729:8733   */\n      0x32\n        /* \"#utility.yul\":8726:8727   */\n      0x04\n        /* \"#utility.yul\":8719:8734   */\n      mstore\n        /* \"#utility.yul\":8753:8757   */\n      0x24\n        /* \"#utility.yul\":8750:8751   */\n      0x00\n        /* \"#utility.yul\":8743:8758   */\n      revert\n        /* \"#utility.yul\":8770:8950   */\n    tag_139:\n        /* \"#utility.yul\":8818:8895   */\n      0x4e487b7100000000000000000000000000000000000000000000000000000000\n        /* \"#utility.yul\":8815:8816   */\n      0x00\n        /* \"#utility.yul\":8808:8896   */\n      mstore\n        /* \"#utility.yul\":8915:8919   */\n      0x11\n        /* \"#utility.yul\":8912:8913   */\n      0x04\n        /* \"#utility.yul\":8905:8920   */\n      mstore\n        /* \"#utility.yul\":8939:8943   */\n      0x24\n        /* \"#utility.yul\":8936:8937   */\n      0x00\n        /* \"#utility.yul\":8929:8944   */\n      revert\n        /* \"#utility.yul\":8956:9150   */\n    tag_58:\n        /* \"#utility.yul\":8996:9000   */\n      0x00\n        /* \"#utility.yul\":9016:9036   */\n      tag_234\n        /* \"#utility.yul\":9034:9035   */\n      dup3\n        /* \"#utility.yul\":9016:9036   */\n      tag_107\n      jump\t// in\n    tag_234:\n        /* \"#utility.yul\":9011:9036   */\n      swap2\n      pop\n        /* \"#utility.yul\":9050:9070   */\n      tag_235\n        /* \"#utility.yul\":9068:9069   */\n      dup4\n        /* \"#utility.yul\":9050:9070   */\n      tag_107\n      jump\t// in\n    tag_235:\n        /* \"#utility.yul\":9045:9070   */\n      swap3\n      pop\n        /* \"#utility.yul\":9094:9095   */\n      dup3\n        /* \"#utility.yul\":9091:9092   */\n      dup3\n        /* \"#utility.yul\":9087:9096   */\n      sub\n        /* \"#utility.yul\":9079:9096   */\n      swap1\n      pop\n        /* \"#utility.yul\":9118:9119   */\n      dup2\n        /* \"#utility.yul\":9112:9116   */\n      dup2\n        /* \"#utility.yul\":9109:9120   */\n      gt\n        /* \"#utility.yul\":9106:9143   */\n      iszero\n      tag_236\n      jumpi\n        /* \"#utility.yul\":9123:9141   */\n      tag_237\n      tag_139\n      jump\t// in\n    tag_237:\n        /* \"#utility.yul\":9106:9143   */\n    tag_236:\n        /* \"#utility.yul\":8956:9150   */\n      swap3\n      swap2\n      pop\n      pop\n      jump\t// out\n        /* \"#utility.yul\":9156:9347   */\n    tag_60:\n        /* \"#utility.yul\":9196:9199   */\n      0x00\n        /* \"#utility.yul\":9215:9235   */\n      tag_239\n        /* \"#utility.yul\":9233:9234   */\n      dup3\n        /* \"#utility.yul\":9215:9235   */\n      tag_107\n      jump\t// in\n    tag_239:\n        /* \"#utility.yul\":9210:9235   */\n      swap2\n      pop\n        /* \"#utility.yul\":9249:9269   */\n      tag_240\n        /* \"#utility.yul\":9267:9268   */\n      dup4\n        /* \"#utility.yul\":9249:9269   */\n      tag_107\n      jump\t// in\n    tag_240:\n        /* \"#utility.yul\":9244:9269   */\n      swap3\n      pop\n        /* \"#utility.yul\":9292:9293   */\n      dup3\n        /* \"#utility.yul\":9289:9290   */\n      dup3\n        /* \"#utility.yul\":9285:9294   */\n      add\n        /* \"#utility.yul\":9278:9294   */\n      swap1\n      pop\n        /* \"#utility.yul\":9313:9316   */\n      dup1\n        /* \"#utility.yul\":9310:9311   */\n      dup3\n        /* \"#utility.yul\":9307:9317   */\n      gt\n        /* \"#utility.yul\":9304:9340   */\n      iszero\n      tag_241\n      jumpi\n        /* \"#utility.yul\":9320:9338   */\n      tag_242\n      tag_139\n      jump\t// in\n    tag_242:\n        /* \"#utility.yul\":9304:9340   */\n    tag_241:\n        /* \"#utility.yul\":9156:9347   */\n      swap3\n      swap2\n      pop\n      pop\n      jump\t// out\n        /* \"#utility.yul\":9353:9533   */\n    tag_69:\n        /* \"#utility.yul\":9401:9478   */\n      0x4e487b7100000000000000000000000000000000000000000000000000000000\n        /* \"#utility.yul\":9398:9399   */\n      0x00\n        /* \"#utility.yul\":9391:9479   */\n      mstore\n        /* \"#utility.yul\":9498:9502   */\n      0x31\n        /* \"#utility.yul\":9495:9496   */\n      0x04\n        /* \"#utility.yul\":9488:9503   */\n      mstore\n        /* \"#utility.yul\":9522:9526   */\n      0x24\n        /* \"#utility.yul\":9519:9520   */\n      0x00\n        /* \"#utility.yul\":9512:9527   */\n      revert\n\n    auxdata: 0xa264697066735822122065118ba4230e1758ca15fc51f8f54efdcda16d0d1f4cb2f5298c679c86fc56e564736f6c634300081a0033\n}\n",
				"bytecode": {
					"linkReferences": {},
					"object": "60806040526040518060a00160405280600160ff168152602001600260ff168152602001600360ff168152602001600460ff168152602001600560ff168152506004906005604d929190605d565b503480156058575f80fd5b5060c1565b828054828255905f5260205f209081019282156099579160200282015b828111156098578251829060ff16905591602001919060010190607a565b5b50905060a4919060a8565b5090565b5b8082111560bd575f815f90555060010160a9565b5090565b610a21806100ce5f395ff3fe608060405234801561000f575f80fd5b5060043610610091575f3560e01c80635a463a32116100645780635a463a321461011f5780635fcec3ff1461014f578063752783621461017f5780639195460e1461019b578063e65d1594146101cb57610091565b806306fdde03146100955780631030fe4b146100b35780633fa4f245146100e357806353c0001214610101575b5f80fd5b61009d6101e9565b6040516100aa9190610525565b60405180910390f35b6100cd60048036038101906100c89190610570565b6101ee565b6040516100da91906105b5565b60405180910390f35b6100eb6102b1565b6040516100f89190610525565b60405180910390f35b6101096102b7565b6040516101169190610525565b60405180910390f35b61013960048036038101906101349190610570565b6102c3565b60405161014691906105b5565b60405180910390f35b61016960048036038101906101649190610570565b610340565b6040516101769190610525565b60405180910390f35b61019960048036038101906101949190610570565b610365565b005b6101b560048036038101906101b09190610675565b61038e565b6040516101c291906108de565b60405180910390f35b6101d3610479565b6040516101e091906105b5565b60405180910390f35b5f5481565b5f60048281548110610203576102026108fe565b5b905f5260205f20015f90555f8290505b60016004805490506102259190610958565b81101561028257600460018261023b919061098b565b8154811061024c5761024b6108fe565b5b905f5260205f20015460048281548110610269576102686108fe565b5b905f5260205f2001819055508080600101915050610213565b506004805480610295576102946109be565b5b600190038181905f5260205f20015f9055905560019050919050565b60015481565b5f600480549050905090565b5f600460016004805490506102d89190610958565b815481106102e9576102e86108fe565b5b905f5260205f20015460048381548110610306576103056108fe565b5b905f5260205f2001819055506004805480610324576103236109be565b5b600190038181905f5260205f20015f9055905560019050919050565b5f60048281548110610355576103546108fe565b5b905f5260205f2001549050919050565b600481908060018154018082558091505060019003905f5260205f20015f909190919091505550565b6103966104bd565b5f6040518060a001604052808a8a8080601f0160208091040260200160405190810160405280939291908181526020018383808284375f81840152601f19601f820116905080830192505050505050508152602001888152602001876002811115610404576104036107ab565b5b815260200186868080601f0160208091040260200160405190810160405280939291908181526020018383808284375f81840152601f19601f820116905080830192505050505050508152602001846002811115610465576104646107ab565b5b815250905080915050979650505050505050565b5f600160048054905011156104b657600480548061049a576104996109be565b5b600190038181905f5260205f20015f90559055600190506104ba565b5f90505b90565b6040518060a00160405280606081526020015f81526020015f60028111156104e8576104e76107ab565b5b8152602001606081526020015f6002811115610507576105066107ab565b5b81525090565b5f819050919050565b61051f8161050d565b82525050565b5f6020820190506105385f830184610516565b92915050565b5f80fd5b5f80fd5b61054f8161050d565b8114610559575f80fd5b50565b5f8135905061056a81610546565b92915050565b5f602082840312156105855761058461053e565b5b5f6105928482850161055c565b91505092915050565b5f8115159050919050565b6105af8161059b565b82525050565b5f6020820190506105c85f8301846105a6565b92915050565b5f80fd5b5f80fd5b5f80fd5b5f8083601f8401126105ef576105ee6105ce565b5b8235905067ffffffffffffffff81111561060c5761060b6105d2565b5b602083019150836001820283011115610628576106276105d6565b5b9250929050565b6003811061063b575f80fd5b50565b5f8135905061064c8161062f565b92915050565b6003811061065e575f80fd5b50565b5f8135905061066f81610652565b92915050565b5f805f805f805f60a0888a0312156106905761068f61053e565b5b5f88013567ffffffffffffffff8111156106ad576106ac610542565b5b6106b98a828b016105da565b975097505060206106cc8a828b0161055c565b95505060406106dd8a828b0161063e565b945050606088013567ffffffffffffffff8111156106fe576106fd610542565b5b61070a8a828b016105da565b9350935050608061071d8a828b01610661565b91505092959891949750929550565b5f81519050919050565b5f82825260208201905092915050565b8281835e5f83830152505050565b5f601f19601f8301169050919050565b5f61076e8261072c565b6107788185610736565b9350610788818560208601610746565b61079181610754565b840191505092915050565b6107a58161050d565b82525050565b7f4e487b71000000000000000000000000000000000000000000000000000000005f52602160045260245ffd5b600381106107e9576107e86107ab565b5b50565b5f8190506107f9826107d8565b919050565b5f610808826107ec565b9050919050565b610818816107fe565b82525050565b6003811061082f5761082e6107ab565b5b50565b5f81905061083f8261081e565b919050565b5f61084e82610832565b9050919050565b61085e81610844565b82525050565b5f60a083015f8301518482035f86015261087e8282610764565b9150506020830151610893602086018261079c565b5060408301516108a6604086018261080f565b50606083015184820360608601526108be8282610764565b91505060808301516108d36080860182610855565b508091505092915050565b5f6020820190508181035f8301526108f68184610864565b905092915050565b7f4e487b71000000000000000000000000000000000000000000000000000000005f52603260045260245ffd5b7f4e487b71000000000000000000000000000000000000000000000000000000005f52601160045260245ffd5b5f6109628261050d565b915061096d8361050d565b92508282039050818111156109855761098461092b565b5b92915050565b5f6109958261050d565b91506109a08361050d565b92508282019050808211156109b8576109b761092b565b5b92915050565b7f4e487b71000000000000000000000000000000000000000000000000000000005f52603160045260245ffdfea264697066735822122065118ba4230e1758ca15fc51f8f54efdcda16d0d1f4cb2f5298c679c86fc56e564736f6c634300081a0033",
					"opcodes": "PUSH1 0x80 PUSH1 0x40 MSTORE PUSH1 0x40 MLOAD DUP1 PUSH1 0xA0 ADD PUSH1 0x40 MSTORE DUP1 PUSH1 0x1 PUSH1 0xFF AND DUP2 MSTORE PUSH1 0x20 ADD PUSH1 0x2 PUSH1 0xFF AND DUP2 MSTORE PUSH1 0x20 ADD PUSH1 0x3 PUSH1 0xFF AND DUP2 MSTORE PUSH1 0x20 ADD PUSH1 0x4 PUSH1 0xFF AND DUP2 MSTORE PUSH1 0x20 ADD PUSH1 0x5 PUSH1 0xFF AND DUP2 MSTORE POP PUSH1 0x4 SWAP1 PUSH1 0x5 PUSH1 0x4D SWAP3 SWAP2 SWAP1 PUSH1 0x5D JUMP JUMPDEST POP CALLVALUE DUP1 ISZERO PUSH1 0x58 JUMPI PUSH0 DUP1 REVERT JUMPDEST POP PUSH1 0xC1 JUMP JUMPDEST DUP3 DUP1 SLOAD DUP3 DUP3 SSTORE SWAP1 PUSH0 MSTORE PUSH1 0x20 PUSH0 KECCAK256 SWAP1 DUP2 ADD SWAP3 DUP3 ISZERO PUSH1 0x99 JUMPI SWAP2 PUSH1 0x20 MUL DUP3 ADD JUMPDEST DUP3 DUP2 GT ISZERO PUSH1 0x98 JUMPI DUP3 MLOAD DUP3 SWAP1 PUSH1 0xFF AND SWAP1 SSTORE SWAP2 PUSH1 0x20 ADD SWAP2 SWAP1 PUSH1 0x1 ADD SWAP1 PUSH1 0x7A JUMP JUMPDEST JUMPDEST POP SWAP1 POP PUSH1 0xA4 SWAP2 SWAP1 PUSH1 0xA8 JUMP JUMPDEST POP SWAP1 JUMP JUMPDEST JUMPDEST DUP1 DUP3 GT ISZERO PUSH1 0xBD JUMPI PUSH0 DUP2 PUSH0 SWAP1 SSTORE POP PUSH1 0x1 ADD PUSH1 0xA9 JUMP JUMPDEST POP SWAP1 JUMP JUMPDEST PUSH2 0xA21 DUP1 PUSH2 0xCE PUSH0 CODECOPY PUSH0 RETURN INVALID PUSH1 0x80 PUSH1 0x40 MSTORE CALLVALUE DUP1 ISZERO PUSH2 0xF JUMPI PUSH0 DUP1 REVERT JUMPDEST POP PUSH1 0x4 CALLDATASIZE LT PUSH2 0x91 JUMPI PUSH0 CALLDATALOAD PUSH1 0xE0 SHR DUP1 PUSH4 0x5A463A32 GT PUSH2 0x64 JUMPI DUP1 PUSH4 0x5A463A32 EQ PUSH2 0x11F JUMPI DUP1 PUSH4 0x5FCEC3FF EQ PUSH2 0x14F JUMPI DUP1 PUSH4 0x75278362 EQ PUSH2 0x17F JUMPI DUP1 PUSH4 0x9195460E EQ PUSH2 0x19B JUMPI DUP1 PUSH4 0xE65D1594 EQ PUSH2 0x1CB JUMPI PUSH2 0x91 JUMP JUMPDEST DUP1 PUSH4 0x6FDDE03 EQ PUSH2 0x95 JUMPI DUP1 PUSH4 0x1030FE4B EQ PUSH2 0xB3 JUMPI DUP1 PUSH4 0x3FA4F245 EQ PUSH2 0xE3 JUMPI DUP1 PUSH4 0x53C00012 EQ PUSH2 0x101 JUMPI JUMPDEST PUSH0 DUP1 REVERT JUMPDEST PUSH2 0x9D PUSH2 0x1E9 JUMP JUMPDEST PUSH1 0x40 MLOAD PUSH2 0xAA SWAP2 SWAP1 PUSH2 0x525 JUMP JUMPDEST PUSH1 0x40 MLOAD DUP1 SWAP2 SUB SWAP1 RETURN JUMPDEST PUSH2 0xCD PUSH1 0x4 DUP1 CALLDATASIZE SUB DUP2 ADD SWAP1 PUSH2 0xC8 SWAP2 SWAP1 PUSH2 0x570 JUMP JUMPDEST PUSH2 0x1EE JUMP JUMPDEST PUSH1 0x40 MLOAD PUSH2 0xDA SWAP2 SWAP1 PUSH2 0x5B5 JUMP JUMPDEST PUSH1 0x40 MLOAD DUP1 SWAP2 SUB SWAP1 RETURN JUMPDEST PUSH2 0xEB PUSH2 0x2B1 JUMP JUMPDEST PUSH1 0x40 MLOAD PUSH2 0xF8 SWAP2 SWAP1 PUSH2 0x525 JUMP JUMPDEST PUSH1 0x40 MLOAD DUP1 SWAP2 SUB SWAP1 RETURN JUMPDEST PUSH2 0x109 PUSH2 0x2B7 JUMP JUMPDEST PUSH1 0x40 MLOAD PUSH2 0x116 SWAP2 SWAP1 PUSH2 0x525 JUMP JUMPDEST PUSH1 0x40 MLOAD DUP1 SWAP2 SUB SWAP1 RETURN JUMPDEST PUSH2 0x139 PUSH1 0x4 DUP1 CALLDATASIZE SUB DUP2 ADD SWAP1 PUSH2 0x134 SWAP2 SWAP1 PUSH2 0x570 JUMP JUMPDEST PUSH2 0x2C3 JUMP JUMPDEST PUSH1 0x40 MLOAD PUSH2 0x146 SWAP2 SWAP1 PUSH2 0x5B5 JUMP JUMPDEST PUSH1 0x40 MLOAD DUP1 SWAP2 SUB SWAP1 RETURN JUMPDEST PUSH2 0x169 PUSH1 0x4 DUP1 CALLDATASIZE SUB DUP2 ADD SWAP1 PUSH2 0x164 SWAP2 SWAP1 PUSH2 0x570 JUMP JUMPDEST PUSH2 0x340 JUMP JUMPDEST PUSH1 0x40 MLOAD PUSH2 0x176 SWAP2 SWAP1 PUSH2 0x525 JUMP JUMPDEST PUSH1 0x40 MLOAD DUP1 SWAP2 SUB SWAP1 RETURN JUMPDEST PUSH2 0x199 PUSH1 0x4 DUP1 CALLDATASIZE SUB DUP2 ADD SWAP1 PUSH2 0x194 SWAP2 SWAP1 PUSH2 0x570 JUMP JUMPDEST PUSH2 0x365 JUMP JUMPDEST STOP JUMPDEST PUSH2 0x1B5 PUSH1 0x4 DUP1 CALLDATASIZE SUB DUP2 ADD SWAP1 PUSH2 0x1B0 SWAP2 SWAP1 PUSH2 0x675 JUMP JUMPDEST PUSH2 0x38E JUMP JUMPDEST PUSH1 0x40 MLOAD PUSH2 0x1C2 SWAP2 SWAP1 PUSH2 0x8DE JUMP JUMPDEST PUSH1 0x40 MLOAD DUP1 SWAP2 SUB SWAP1 RETURN JUMPDEST PUSH2 0x1D3 PUSH2 0x479 JUMP JUMPDEST PUSH1 0x40 MLOAD PUSH2 0x1E0 SWAP2 SWAP1 PUSH2 0x5B5 JUMP JUMPDEST PUSH1 0x40 MLOAD DUP1 SWAP2 SUB SWAP1 RETURN JUMPDEST PUSH0 SLOAD DUP2 JUMP JUMPDEST PUSH0 PUSH1 0x4 DUP3 DUP2 SLOAD DUP2 LT PUSH2 0x203 JUMPI PUSH2 0x202 PUSH2 0x8FE JUMP JUMPDEST JUMPDEST SWAP1 PUSH0 MSTORE PUSH1 0x20 PUSH0 KECCAK256 ADD PUSH0 SWAP1 SSTORE PUSH0 DUP3 SWAP1 POP JUMPDEST PUSH1 0x1 PUSH1 0x4 DUP1 SLOAD SWAP1 POP PUSH2 0x225 SWAP2 SWAP1 PUSH2 0x958 JUMP JUMPDEST DUP2 LT ISZERO PUSH2 0x282 JUMPI PUSH1 0x4 PUSH1 0x1 DUP3 PUSH2 0x23B SWAP2 SWAP1 PUSH2 0x98B JUMP JUMPDEST DUP2 SLOAD DUP2 LT PUSH2 0x24C JUMPI PUSH2 0x24B PUSH2 0x8FE JUMP JUMPDEST JUMPDEST SWAP1 PUSH0 MSTORE PUSH1 0x20 PUSH0 KECCAK256 ADD SLOAD PUSH1 0x4 DUP3 DUP2 SLOAD DUP2 LT PUSH2 0x269 JUMPI PUSH2 0x268 PUSH2 0x8FE JUMP JUMPDEST JUMPDEST SWAP1 PUSH0 MSTORE PUSH1 0x20 PUSH0 KECCAK256 ADD DUP2 SWAP1 SSTORE POP DUP1 DUP1 PUSH1 0x1 ADD SWAP2 POP POP PUSH2 0x213 JUMP JUMPDEST POP PUSH1 0x4 DUP1 SLOAD DUP1 PUSH2 0x295 JUMPI PUSH2 0x294 PUSH2 0x9BE JUMP JUMPDEST JUMPDEST PUSH1 0x1 SWAP1 SUB DUP2 DUP2 SWAP1 PUSH0 MSTORE PUSH1 0x20 PUSH0 KECCAK256 ADD PUSH0 SWAP1 SSTORE SWAP1 SSTORE PUSH1 0x1 SWAP1 POP SWAP2 SWAP1 POP JUMP JUMPDEST PUSH1 0x1 SLOAD DUP2 JUMP JUMPDEST PUSH0 PUSH1 0x4 DUP1 SLOAD SWAP1 POP SWAP1 POP SWAP1 JUMP JUMPDEST PUSH0 PUSH1 0x4 PUSH1 0x1 PUSH1 0x4 DUP1 SLOAD SWAP1 POP PUSH2 0x2D8 SWAP2 SWAP1 PUSH2 0x958 JUMP JUMPDEST DUP2 SLOAD DUP2 LT PUSH2 0x2E9 JUMPI PUSH2 0x2E8 PUSH2 0x8FE JUMP JUMPDEST JUMPDEST SWAP1 PUSH0 MSTORE PUSH1 0x20 PUSH0 KECCAK256 ADD SLOAD PUSH1 0x4 DUP4 DUP2 SLOAD DUP2 LT PUSH2 0x306 JUMPI PUSH2 0x305 PUSH2 0x8FE JUMP JUMPDEST JUMPDEST SWAP1 PUSH0 MSTORE PUSH1 0x20 PUSH0 KECCAK256 ADD DUP2 SWAP1 SSTORE POP PUSH1 0x4 DUP1 SLOAD DUP1 PUSH2 0x324 JUMPI PUSH2 0x323 PUSH2 0x9BE JUMP JUMPDEST JUMPDEST PUSH1 0x1 SWAP1 SUB DUP2 DUP2 SWAP1 PUSH0 MSTORE PUSH1 0x20 PUSH0 KECCAK256 ADD PUSH0 SWAP1 SSTORE SWAP1 SSTORE PUSH1 0x1 SWAP1 POP SWAP2 SWAP1 POP JUMP JUMPDEST PUSH0 PUSH1 0x4 DUP3 DUP2 SLOAD DUP2 LT PUSH2 0x355 JUMPI PUSH2 0x354 PUSH2 0x8FE JUMP JUMPDEST JUMPDEST SWAP1 PUSH0 MSTORE PUSH1 0x20 PUSH0 KECCAK256 ADD SLOAD SWAP1 POP SWAP2 SWAP1 POP JUMP JUMPDEST PUSH1 0x4 DUP2 SWAP1 DUP1 PUSH1 0x1 DUP2 SLOAD ADD DUP1 DUP3 SSTORE DUP1 SWAP2 POP POP PUSH1 0x1 SWAP1 SUB SWAP1 PUSH0 MSTORE PUSH1 0x20 PUSH0 KECCAK256 ADD PUSH0 SWAP1 SWAP2 SWAP1 SWAP2 SWAP1 SWAP2 POP SSTORE POP JUMP JUMPDEST PUSH2 0x396 PUSH2 0x4BD JUMP JUMPDEST PUSH0 PUSH1 0x40 MLOAD DUP1 PUSH1 0xA0 ADD PUSH1 0x40 MSTORE DUP1 DUP11 DUP11 DUP1 DUP1 PUSH1 0x1F ADD PUSH1 0x20 DUP1 SWAP2 DIV MUL PUSH1 0x20 ADD PUSH1 0x40 MLOAD SWAP1 DUP2 ADD PUSH1 0x40 MSTORE DUP1 SWAP4 SWAP3 SWAP2 SWAP1 DUP2 DUP2 MSTORE PUSH1 0x20 ADD DUP4 DUP4 DUP1 DUP3 DUP5 CALLDATACOPY PUSH0 DUP2 DUP5 ADD MSTORE PUSH1 0x1F NOT PUSH1 0x1F DUP3 ADD AND SWAP1 POP DUP1 DUP4 ADD SWAP3 POP POP POP POP POP POP POP DUP2 MSTORE PUSH1 0x20 ADD DUP9 DUP2 MSTORE PUSH1 0x20 ADD DUP8 PUSH1 0x2 DUP2 GT ISZERO PUSH2 0x404 JUMPI PUSH2 0x403 PUSH2 0x7AB JUMP JUMPDEST JUMPDEST DUP2 MSTORE PUSH1 0x20 ADD DUP7 DUP7 DUP1 DUP1 PUSH1 0x1F ADD PUSH1 0x20 DUP1 SWAP2 DIV MUL PUSH1 0x20 ADD PUSH1 0x40 MLOAD SWAP1 DUP2 ADD PUSH1 0x40 MSTORE DUP1 SWAP4 SWAP3 SWAP2 SWAP1 DUP2 DUP2 MSTORE PUSH1 0x20 ADD DUP4 DUP4 DUP1 DUP3 DUP5 CALLDATACOPY PUSH0 DUP2 DUP5 ADD MSTORE PUSH1 0x1F NOT PUSH1 0x1F DUP3 ADD AND SWAP1 POP DUP1 DUP4 ADD SWAP3 POP POP POP POP POP POP POP DUP2 MSTORE PUSH1 0x20 ADD DUP5 PUSH1 0x2 DUP2 GT ISZERO PUSH2 0x465 JUMPI PUSH2 0x464 PUSH2 0x7AB JUMP JUMPDEST JUMPDEST DUP2 MSTORE POP SWAP1 POP DUP1 SWAP2 POP POP SWAP8 SWAP7 POP POP POP POP POP POP POP JUMP JUMPDEST PUSH0 PUSH1 0x1 PUSH1 0x4 DUP1 SLOAD SWAP1 POP GT ISZERO PUSH2 0x4B6 JUMPI PUSH1 0x4 DUP1 SLOAD DUP1 PUSH2 0x49A JUMPI PUSH2 0x499 PUSH2 0x9BE JUMP JUMPDEST JUMPDEST PUSH1 0x1 SWAP1 SUB DUP2 DUP2 SWAP1 PUSH0 MSTORE PUSH1 0x20 PUSH0 KECCAK256 ADD PUSH0 SWAP1 SSTORE SWAP1 SSTORE PUSH1 0x1 SWAP1 POP PUSH2 0x4BA JUMP JUMPDEST PUSH0 SWAP1 POP JUMPDEST SWAP1 JUMP JUMPDEST PUSH1 0x40 MLOAD DUP1 PUSH1 0xA0 ADD PUSH1 0x40 MSTORE DUP1 PUSH1 0x60 DUP2 MSTORE PUSH1 0x20 ADD PUSH0 DUP2 MSTORE PUSH1 0x20 ADD PUSH0 PUSH1 0x2 DUP2 GT ISZERO PUSH2 0x4E8 JUMPI PUSH2 0x4E7 PUSH2 0x7AB JUMP JUMPDEST JUMPDEST DUP2 MSTORE PUSH1 0x20 ADD PUSH1 0x60 DUP2 MSTORE PUSH1 0x20 ADD PUSH0 PUSH1 0x2 DUP2 GT ISZERO PUSH2 0x507 JUMPI PUSH2 0x506 PUSH2 0x7AB JUMP JUMPDEST JUMPDEST DUP2 MSTORE POP SWAP1 JUMP JUMPDEST PUSH0 DUP2 SWAP1 POP SWAP2 SWAP1 POP JUMP JUMPDEST PUSH2 0x51F DUP2 PUSH2 0x50D JUMP JUMPDEST DUP3 MSTORE POP POP JUMP JUMPDEST PUSH0 PUSH1 0x20 DUP3 ADD SWAP1 POP PUSH2 0x538 PUSH0 DUP4 ADD DUP5 PUSH2 0x516 JUMP JUMPDEST SWAP3 SWAP2 POP POP JUMP JUMPDEST PUSH0 DUP1 REVERT JUMPDEST PUSH0 DUP1 REVERT JUMPDEST PUSH2 0x54F DUP2 PUSH2 0x50D JUMP JUMPDEST DUP2 EQ PUSH2 0x559 JUMPI PUSH0 DUP1 REVERT JUMPDEST POP JUMP JUMPDEST PUSH0 DUP2 CALLDATALOAD SWAP1 POP PUSH2 0x56A DUP2 PUSH2 0x546 JUMP JUMPDEST SWAP3 SWAP2 POP POP JUMP JUMPDEST PUSH0 PUSH1 0x20 DUP3 DUP5 SUB SLT ISZERO PUSH2 0x585 JUMPI PUSH2 0x584 PUSH2 0x53E JUMP JUMPDEST JUMPDEST PUSH0 PUSH2 0x592 DUP5 DUP3 DUP6 ADD PUSH2 0x55C JUMP JUMPDEST SWAP2 POP POP SWAP3 SWAP2 POP POP JUMP JUMPDEST PUSH0 DUP2 ISZERO ISZERO SWAP1 POP SWAP2 SWAP1 POP JUMP JUMPDEST PUSH2 0x5AF DUP2 PUSH2 0x59B JUMP JUMPDEST DUP3 MSTORE POP POP JUMP JUMPDEST PUSH0 PUSH1 0x20 DUP3 ADD SWAP1 POP PUSH2 0x5C8 PUSH0 DUP4 ADD DUP5 PUSH2 0x5A6 JUMP JUMPDEST SWAP3 SWAP2 POP POP JUMP JUMPDEST PUSH0 DUP1 REVERT JUMPDEST PUSH0 DUP1 REVERT JUMPDEST PUSH0 DUP1 REVERT JUMPDEST PUSH0 DUP1 DUP4 PUSH1 0x1F DUP5 ADD SLT PUSH2 0x5EF JUMPI PUSH2 0x5EE PUSH2 0x5CE JUMP JUMPDEST JUMPDEST DUP3 CALLDATALOAD SWAP1 POP PUSH8 0xFFFFFFFFFFFFFFFF DUP2 GT ISZERO PUSH2 0x60C JUMPI PUSH2 0x60B PUSH2 0x5D2 JUMP JUMPDEST JUMPDEST PUSH1 0x20 DUP4 ADD SWAP2 POP DUP4 PUSH1 0x1 DUP3 MUL DUP4 ADD GT ISZERO PUSH2 0x628 JUMPI PUSH2 0x627 PUSH2 0x5D6 JUMP JUMPDEST JUMPDEST SWAP3 POP SWAP3 SWAP1 POP JUMP JUMPDEST PUSH1 0x3 DUP2 LT PUSH2 0x63B JUMPI PUSH0 DUP1 REVERT JUMPDEST POP JUMP JUMPDEST PUSH0 DUP2 CALLDATALOAD SWAP1 POP PUSH2 0x64C DUP2 PUSH2 0x62F JUMP JUMPDEST SWAP3 SWAP2 POP POP JUMP JUMPDEST PUSH1 0x3 DUP2 LT PUSH2 0x65E JUMPI PUSH0 DUP1 REVERT JUMPDEST POP JUMP JUMPDEST PUSH0 DUP2 CALLDATALOAD SWAP1 POP PUSH2 0x66F DUP2 PUSH2 0x652 JUMP JUMPDEST SWAP3 SWAP2 POP POP JUMP JUMPDEST PUSH0 DUP1 PUSH0 DUP1 PUSH0 DUP1 PUSH0 PUSH1 0xA0 DUP9 DUP11 SUB SLT ISZERO PUSH2 0x690 JUMPI PUSH2 0x68F PUSH2 0x53E JUMP JUMPDEST JUMPDEST PUSH0 DUP9 ADD CALLDATALOAD PUSH8 0xFFFFFFFFFFFFFFFF DUP2 GT ISZERO PUSH2 0x6AD JUMPI PUSH2 0x6AC PUSH2 0x542 JUMP JUMPDEST JUMPDEST PUSH2 0x6B9 DUP11 DUP3 DUP12 ADD PUSH2 0x5DA JUMP JUMPDEST SWAP8 POP SWAP8 POP POP PUSH1 0x20 PUSH2 0x6CC DUP11 DUP3 DUP12 ADD PUSH2 0x55C JUMP JUMPDEST SWAP6 POP POP PUSH1 0x40 PUSH2 0x6DD DUP11 DUP3 DUP12 ADD PUSH2 0x63E JUMP JUMPDEST SWAP5 POP POP PUSH1 0x60 DUP9 ADD CALLDATALOAD PUSH8 0xFFFFFFFFFFFFFFFF DUP2 GT ISZERO PUSH2 0x6FE JUMPI PUSH2 0x6FD PUSH2 0x542 JUMP JUMPDEST JUMPDEST PUSH2 0x70A DUP11 DUP3 DUP12 ADD PUSH2 0x5DA JUMP JUMPDEST SWAP4 POP SWAP4 POP POP PUSH1 0x80 PUSH2 0x71D DUP11 DUP3 DUP12 ADD PUSH2 0x661 JUMP JUMPDEST SWAP2 POP POP SWAP3 SWAP6 SWAP9 SWAP2 SWAP5 SWAP8 POP SWAP3 SWAP6 POP JUMP JUMPDEST PUSH0 DUP2 MLOAD SWAP1 POP SWAP2 SWAP1 POP JUMP JUMPDEST PUSH0 DUP3 DUP3 MSTORE PUSH1 0x20 DUP3 ADD SWAP1 POP SWAP3 SWAP2 POP POP JUMP JUMPDEST DUP3 DUP2 DUP4 MCOPY PUSH0 DUP4 DUP4 ADD MSTORE POP POP POP JUMP JUMPDEST PUSH0 PUSH1 0x1F NOT PUSH1 0x1F DUP4 ADD AND SWAP1 POP SWAP2 SWAP1 POP JUMP JUMPDEST PUSH0 PUSH2 0x76E DUP3 PUSH2 0x72C JUMP JUMPDEST PUSH2 0x778 DUP2 DUP6 PUSH2 0x736 JUMP JUMPDEST SWAP4 POP PUSH2 0x788 DUP2 DUP6 PUSH1 0x20 DUP7 ADD PUSH2 0x746 JUMP JUMPDEST PUSH2 0x791 DUP2 PUSH2 0x754 JUMP JUMPDEST DUP5 ADD SWAP2 POP POP SWAP3 SWAP2 POP POP JUMP JUMPDEST PUSH2 0x7A5 DUP2 PUSH2 0x50D JUMP JUMPDEST DUP3 MSTORE POP POP JUMP JUMPDEST PUSH32 0x4E487B7100000000000000000000000000000000000000000000000000000000 PUSH0 MSTORE PUSH1 0x21 PUSH1 0x4 MSTORE PUSH1 0x24 PUSH0 REVERT JUMPDEST PUSH1 0x3 DUP2 LT PUSH2 0x7E9 JUMPI PUSH2 0x7E8 PUSH2 0x7AB JUMP JUMPDEST JUMPDEST POP JUMP JUMPDEST PUSH0 DUP2 SWAP1 POP PUSH2 0x7F9 DUP3 PUSH2 0x7D8 JUMP JUMPDEST SWAP2 SWAP1 POP JUMP JUMPDEST PUSH0 PUSH2 0x808 DUP3 PUSH2 0x7EC JUMP JUMPDEST SWAP1 POP SWAP2 SWAP1 POP JUMP JUMPDEST PUSH2 0x818 DUP2 PUSH2 0x7FE JUMP JUMPDEST DUP3 MSTORE POP POP JUMP JUMPDEST PUSH1 0x3 DUP2 LT PUSH2 0x82F JUMPI PUSH2 0x82E PUSH2 0x7AB JUMP JUMPDEST JUMPDEST POP JUMP JUMPDEST PUSH0 DUP2 SWAP1 POP PUSH2 0x83F DUP3 PUSH2 0x81E JUMP JUMPDEST SWAP2 SWAP1 POP JUMP JUMPDEST PUSH0 PUSH2 0x84E DUP3 PUSH2 0x832 JUMP JUMPDEST SWAP1 POP SWAP2 SWAP1 POP JUMP JUMPDEST PUSH2 0x85E DUP2 PUSH2 0x844 JUMP JUMPDEST DUP3 MSTORE POP POP JUMP JUMPDEST PUSH0 PUSH1 0xA0 DUP4 ADD PUSH0 DUP4 ADD MLOAD DUP5 DUP3 SUB PUSH0 DUP7 ADD MSTORE PUSH2 0x87E DUP3 DUP3 PUSH2 0x764 JUMP JUMPDEST SWAP2 POP POP PUSH1 0x20 DUP4 ADD MLOAD PUSH2 0x893 PUSH1 0x20 DUP7 ADD DUP3 PUSH2 0x79C JUMP JUMPDEST POP PUSH1 0x40 DUP4 ADD MLOAD PUSH2 0x8A6 PUSH1 0x40 DUP7 ADD DUP3 PUSH2 0x80F JUMP JUMPDEST POP PUSH1 0x60 DUP4 ADD MLOAD DUP5 DUP3 SUB PUSH1 0x60 DUP7 ADD MSTORE PUSH2 0x8BE DUP3 DUP3 PUSH2 0x764 JUMP JUMPDEST SWAP2 POP POP PUSH1 0x80 DUP4 ADD MLOAD PUSH2 0x8D3 PUSH1 0x80 DUP7 ADD DUP3 PUSH2 0x855 JUMP JUMPDEST POP DUP1 SWAP2 POP POP SWAP3 SWAP2 POP POP JUMP JUMPDEST PUSH0 PUSH1 0x20 DUP3 ADD SWAP1 POP DUP2 DUP2 SUB PUSH0 DUP4 ADD MSTORE PUSH2 0x8F6 DUP2 DUP5 PUSH2 0x864 JUMP JUMPDEST SWAP1 POP SWAP3 SWAP2 POP POP JUMP JUMPDEST PUSH32 0x4E487B7100000000000000000000000000000000000000000000000000000000 PUSH0 MSTORE PUSH1 0x32 PUSH1 0x4 MSTORE PUSH1 0x24 PUSH0 REVERT JUMPDEST PUSH32 0x4E487B7100000000000000000000000000000000000000000000000000000000 PUSH0 MSTORE PUSH1 0x11 PUSH1 0x4 MSTORE PUSH1 0x24 PUSH0 REVERT JUMPDEST PUSH0 PUSH2 0x962 DUP3 PUSH2 0x50D JUMP JUMPDEST SWAP2 POP PUSH2 0x96D DUP4 PUSH2 0x50D JUMP JUMPDEST SWAP3 POP DUP3 DUP3 SUB SWAP1 POP DUP2 DUP2 GT ISZERO PUSH2 0x985 JUMPI PUSH2 0x984 PUSH2 0x92B JUMP JUMPDEST JUMPDEST SWAP3 SWAP2 POP POP JUMP JUMPDEST PUSH0 PUSH2 0x995 DUP3 PUSH2 0x50D JUMP JUMPDEST SWAP2 POP PUSH2 0x9A0 DUP4 PUSH2 0x50D JUMP JUMPDEST SWAP3 POP DUP3 DUP3 ADD SWAP1 POP DUP1 DUP3 GT ISZERO PUSH2 0x9B8 JUMPI PUSH2 0x9B7 PUSH2 0x92B JUMP JUMPDEST JUMPDEST SWAP3 SWAP2 POP POP JUMP JUMPDEST PUSH32 0x4E487B7100000000000000000000000000000000000000000000000000000000 PUSH0 MSTORE PUSH1 0x31 PUSH1 0x4 MSTORE PUSH1 0x24 PUSH0 REVERT INVALID LOG2 PUSH5 0x6970667358 0x22 SLT KECCAK256 PUSH6 0x118BA4230E17 PC 0xCA ISZERO 0xFC MLOAD 0xF8 CREATE2 0x4E REVERT 0xCD LOG1 PUSH14 0xD1F4CB2F5298C679C86FC56E564 PUSH20 0x6F6C634300081A00330000000000000000000000 "
				},
				"gasEstimates": {
					"creation": {
						"codeDepositCost": "518600",
						"executionCost": "infinite",
						"totalCost": "infinite"
					},
					"external": {
						"CreateCar(string,uint256,uint8,string,uint8)": "infinite",
						"addNum(uint256)": "46865",
						"getnumberIndex(uint256)": "infinite",
						"getnumberLen()": "2507",
						"leftShiftDel(uint256)": "infinite",
						"name()": "2425",
						"popNum()": "31869",
						"randomShiftDel(uint256)": "infinite",
						"value()": "2470"
					}
				},
				"methodIdentifiers": {
					"CreateCar(string,uint256,uint8,string,uint8)": "9195460e",
					"addNum(uint256)": "75278362",
					"getnumberIndex(uint256)": "5fcec3ff",
					"getnumberLen()": "53c00012",
					"leftShiftDel(uint256)": "1030fe4b",
					"name()": "06fdde03",
					"popNum()": "e65d1594",
					"randomShiftDel(uint256)": "5a463a32",
					"value()": "3fa4f245"
				}
			},
			"storageLayout": {
				"storage": [
					{
						"astId": 3,
						"contract": "contracts/firstcontract.sol:firstContract",
						"label": "name",
						"offset": 0,
						"slot": "0",
						"type": "t_uint256"
					},
					{
						"astId": 5,
						"contract": "contracts/firstcontract.sol:firstContract",
						"label": "value",
						"offset": 0,
						"slot": "1",
						"type": "t_uint256"
					},
					{
						"astId": 7,
						"contract": "contracts/firstcontract.sol:firstContract",
						"label": "key",
						"offset": 0,
						"slot": "2",
						"type": "t_uint256"
					},
					{
						"astId": 9,
						"contract": "contracts/firstcontract.sol:firstContract",
						"label": "owner",
						"offset": 0,
						"slot": "3",
						"type": "t_address"
					},
					{
						"astId": 26,
						"contract": "contracts/firstcontract.sol:firstContract",
						"label": "numbers",
						"offset": 0,
						"slot": "4",
						"type": "t_array(t_uint256)dyn_storage"
					}
				],
				"types": {
					"t_address": {
						"encoding": "inplace",
						"label": "address",
						"numberOfBytes": "20"
					},
					"t_array(t_uint256)dyn_storage": {
						"base": "t_uint256",
						"encoding": "dynamic_array",
						"label": "uint256[]",
						"numberOfBytes": "32"
					},
					"t_uint256": {
						"encoding": "inplace",
						"label": "uint256",
						"numberOfBytes": "32"
					}
				}
			},
			"userdoc": {
				"kind": "user",
				"methods": {},
				"version": 1
			}
		}
	}
}